:0400000007EF00F016
:0A0008005082A4ED12F07BEF16F019
:100800000001000A006400E8031027256425643A0B
:10081000256425643A25642564202020202020209A
:100820002000484F52413A20256425643A2564252A
:10083000643A256425642000444154413A202564EB
:1008400025643A256425643A2564256420002564DE
:100850002025642025642020202020202020202006
:10086000200053455249414C3A202020202020208E
:1008700020200054454D50455241545552413A2094
:10088000202020004445535045525441444F523A91
:10089000202020200025642C2564206F4320202068
:0708A00020202020200000B1
:1008A80083A014D0050E1A6E910E196ED00EE82E84
:1008B800FED7192EFCD71A2EFAD70001B34BB42B4A
:1008C800000E4A6E000E496E83B0FED70001B4BF19
:1008D8000DD00001B45105E1040E0001B35DD8A0AC
:1008E80005D0000E0001B46F000EB36F83A28CD147
:1008F800050E1A6E910E196ED00EE82EFED7192E1F
:10090800FCD71A2EFAD70001B3510001B411D8A4AC
:10091800F4D049504A10D8A418D020EE04F013504F
:10092800D9261450DA22DECF19F0DDCF1AF00A0EDC
:100938001926000E1A2220EE04F01350D92614505E
:10094800DA2219C0DEFF1AC0DDFF49044A10D8A414
:1009580009D020EE04F01350D9261450DA22DE2AEA
:10096800000EDD22020E49184A10D8A414D013C074
:10097800D9FF14C0DAFFDECF19F0DDCF1AF00A0E66
:100988001926000E1A2213C0D9FF14C0DAFF19C0A5
:10099800DEFF1AC0DDFF030E49184A10D8A407D09D
:1009A80013C0D9FF14C0DAFFDE2A000EDD22040EC0
:1009B80049184A10D8A418D020EE02F01350D926AE
:1009C8001450DA22DECF19F0DDCF1AF00A0E1926FC
:1009D800000E1A2220EE02F01350D9261450DA2203
:1009E80019C0DEFF1AC0DDFF050E49184A10D8A449
:1009F80009D020EE02F01350D9261450DA22DE2A4C
:100A0800000EDD22060E49184A10D8A414D017C0CB
:100A1800D9FF18C0DAFFDECF19F0DDCF1AF00A0EC1
:100A28001926000E1A2217C0D9FF18C0DAFF19C0FC
:100A3800DEFF1AC0DDFF070E49184A10D8A407D0F8
:100A480017C0D9FF18C0DAFFDE2A000EDD22080E13
:100A580049184A10D8A418D020EE02F01750D92609
:100A68001850DA22DECF19F0DDCF1AF00A0E192657
:100A7800000E1A2220EE02F01750D9261850DA225A
:100A880019C0DEFF1AC0DDFF090E49184A10D8A4A4
:100A980009D020EE02F01750D9261850DA22DE2AA3
:100AA800000EDD220A0E49184A10D8A418D020EEEC
:100AB80004F01750D9261850DA22DECF19F0DDCF0E
:100AC8001AF00A0E1926000E1A2220EE04F017500A
:100AD800D9261850DA2219C0DEFF1AC0DDFF0B0E26
:100AE80049184A10D8A409D020EE04F01750D92686
:100AF8001850DA22DE2A000EDD220001B3050001BB
:100B0800B411D8A47FD049504A10D8A418D020EEE8
:100B180004F01550D9261650DA22DECF19F0DDCFB1
:100B28001AF00A0E1926000E1A2220EE04F01550AB
:100B3800D9261650DA2219C0DEFF1AC0DDFF490493
:100B48004A10D8A409D020EE04F01550D926165022
:100B5800DA22DE2A000EDD22020E49184A10D8A435
:100B680014D015C0D9FF16C0DAFFDECF19F0DDCFDB
:100B78001AF00A0E1926000E1A2215C0D9FF16C03F
:100B8800DAFF19C0DEFF1AC0DDFF030E49184A104C
:100B9800D8A407D015C0D9FF16C0DAFFDE2A000E88
:100BA800DD22040E49184A10D8A418D020EE02F00D
:100BB8001550D9261650DA22DECF19F0DDCF1AF0FB
:100BC8000A0E1926000E1A2220EE02F01550D92618
:100BD8001650DA2219C0DEFF1AC0DDFF050E4918CB
:100BE8004A10D8A409D020EE02F01550D926165084
:100BF800DA22DE2A000EDD2215C00FF016C010F032
:100C080087EC0FF083B2FED783A4B0D1050E1A6E1D
:100C1800910E196ED00EE82EFED7192EFCD71A2E7B
:100C2800FAD70001B3510001B411D8A40CD149502E
:100C38004A10D8A41CD0F60E196EFF0E1A6E20EEBC
:100C480004F01350D9261450DA22DECF1BF0DDCF82
:100C58001CF019501B261A501C2220EE04F01350C9
:100C6800D9261450DA221BC0DEFF1CC0DDFF490460
:100C78004A10D8A409D020EE04F01350D9261450F5
:100C8800DA22DE06000EDD5A020E49184A10D8A4F0
:100C980018D0F60E196EFF0E1A6E13C0D9FF14C0C5
:100CA800DAFFDECF1BF0DDCF1CF019501B261A50DF
:100CB8001C2213C0D9FF14C0DAFF1BC0DEFF1CC002
:100CC800DDFF030E49184A10D8A407D013C0D9FF76
:100CD80014C0DAFFDE06000EDD5A040E49184A1069
:100CE800D8A41CD0F60E196EFF0E1A6E20EE02F074
:100CF8001350D9261450DA22DECF1BF0DDCF1CF0BA
:100D080019501B261A501C2220EE02F01350D92627
:100D18001450DA221BC0DEFF1CC0DDFF050E491887
:100D28004A10D8A409D020EE02F01350D926145046
:100D3800DA22DE06000EDD5A060E49184A10D8A43B
:100D480018D0F60E196EFF0E1A6E17C0D9FF18C00C
:100D5800DAFFDECF1BF0DDCF1CF019501B261A502E
:100D68001C2217C0D9FF18C0DAFF1BC0DEFF1CC049
:100D7800DDFF070E49184A10D8A407D017C0D9FFBD
:100D880018C0DAFFDE06000EDD5A080E49184A10B0
:100D9800D8A41CD0F60E196EFF0E1A6E20EE02F0C3
:100DA8001750D9261850DA22DECF1BF0DDCF1CF001
:100DB80019501B261A501C2220EE02F01750D92673
:100DC8001850DA221BC0DEFF1CC0DDFF090E4918CF
:100DD8004A10D8A409D020EE02F01750D92618508E
:100DE800DA22DE06000EDD5A0A0E49184A10D8A487
:100DF8001CD0F60E196EFF0E1A6E20EE04F0175076
:100E0800D9261850DA22DECF1BF0DDCF1CF019509E
:100E18001B261A501C2220EE04F01750D926185011
:100E2800DA221BC0DEFF1CC0DDFF0B0E49184A107A
:100E3800D8A409D020EE04F01750D9261850DA2289
:100E4800DE06000EDD5A0001B3050001B411D8A476
:100E58008BD049504A10D8A41CD0F60E196EFF0E3C
:100E68001A6E20EE04F01550D9261650DA22DECF7D
:100E78001BF0DDCF1CF019501B261A501C2220EE47
:100E880004F01550D9261650DA221BC0DEFF1CC00C
:100E9800DDFF49044A10D8A409D020EE04F015500B
:100EA800D9261650DA22DE06000EDD5A020E49183F
:100EB8004A10D8A418D0F60E196EFF0E1A6E15C077
:100EC800D9FF16C0DAFFDECF1BF0DDCF1CF01950BA
:100ED8001B261A501C2215C0D9FF16C0DAFF1BC0EA
:100EE800DEFF1CC0DDFF030E49184A10D8A407D046
:100EF80015C0D9FF16C0DAFFDE06000EDD5A040E53
:100F080049184A10D8A41CD0F60E196EFF0E1A6E96
:100F180020EE02F01550D9261650DA22DECF1BF04B
:100F2800DDCF1CF019501B261A501C2220EE02F0AF
:100F38001550D9261650DA221BC0DEFF1CC0DDFF73
:100F4800050E49184A10D8A409D020EE02F0155011
:100F5800D9261650DA22DE06000EDD5A15C00FF02B
:100F680016C010F087EC0FF083B4FED783A61200EA
:100F7800050E1A6E910E196ED00EE82EFED7192E98
:100F8800FCD71A2EFAD7494A4A2A4ABE10D04A50E4
:100F980004E10C0E495CD8A00AD00001B35100014D
:100FA800B411D8A404D0000E4A6E000E496E4ABE91
:100FB80010D04A5004E1060E495CD8A00AD00001BE
:100FC800B3050001B411D8A404D0000E4A6E000E77
:100FD800496E83A61200FDD70001B3510001B41178
:100FE800D8A436D2000120EE04F07551D9267651E6
:100FF800DA22DECF15F0DDCF16F0000E186E0A0EDD
:10100800176ECDEC14F015C07BF016C07CF0000E06
:10101800126E0A0E116E000120EE04F07551D926E9
:101028007651DA22DECF0FF0DDCF10F0C3EC15F0E9
:101038000FC015F010C016F0000E186E0A0E176ECD
:10104800CDEC14F0151E161E154A162A155000016F
:101058007B250001996F165000017C2100019A6FD1
:10106800000120EE04F07551D9267651DA22DECF40
:101078000FF0DDCF10F0000E126E0A0E116EC3ECE9
:1010880015F00FC09BF010C09CF075C0D9FF76C05A
:10109800DAFFDECF15F0DDCF16F0000E186E0A0E5F
:1010A800176ECDEC14F015C07BF016C07CF0000E66
:1010B800126E0A0E116E75C0D9FF76C0DAFFDECF48
:1010C8000FF0DDCF10F0C3EC15F00FC015F010C015
:1010D80016F0000E186E0A0E176ECDEC14F0151EE1
:1010E800161E154A162A155000017B2500019D6F12
:1010F800165000017C2100019E6F75C0D9FF76C093
:10110800DAFFDECF0FF0DDCF10F0000E126E0A0E00
:10111800116EC3EC15F00FC09FF010C0A0F00001D5
:1011280020EE02F07551D9267651DA22DECF15F07D
:10113800DDCF16F0000E186E0A0E176ECDEC14F007
:1011480015C07BF016C07CF0000E126E0A0E116EF0
:10115800000120EE02F07551D9267651DA22DECF51
:101168000FF0DDCF10F0C3EC15F00FC015F010C074
:1011780016F0000E186E0A0E176ECDEC14F0151E40
:10118800161E154A162A155000017B250001A16F6D
:10119800165000017C210001A26F000120EE02F030
:1011A8007551D9267651DA22DECF0FF0DDCF10F057
:1011B800000E126E0A0E116EC3EC15F00FC0A3F0EC
:1011C80010C0A4F07D0E1B6E000E1C6E220E1D6E4C
:1011D800080E1E6E99C01FF09AC020F09BC021F027
:1011E8009CC022F09DC023F09EC024F09FC025F033
:1011F800A0C026F0A1C027F0A2C028F0A3C029F003
:10120800A4C02AF0E3EC0EF0000E29EC16F07D0ED7
:10121800116E000E126EFBEC15F079C0D9FF7AC082
:10122800DAFFDECF15F0DDCF16F0000E186E0A0ECD
:10123800176ECDEC14F015C07BF016C07CF0000ED4
:10124800126E0A0E116E79C0D9FF7AC0DAFFDECFAE
:101258000FF0DDCF10F0C3EC15F00FC015F010C083
:1012680016F0000E186E0A0E176ECDEC14F0151E4F
:10127800161E154A162A155000017B2500018D6F90
:10128800165000017C2100018E6F79C0D9FF7AC009
:10129800DAFFDECF0FF0DDCF10F0000E126E0A0E6F
:1012A800116EC3EC15F00FC08FF010C090F0000164
:1012B80020EE02F07951D9267A51DA22DECF15F0E4
:1012C800DDCF16F0000E186E0A0E176ECDEC14F076
:1012D80015C07BF016C07CF0000E126E0A0E116E5F
:1012E800000120EE02F07951D9267A51DA22DECFB8
:1012F8000FF0DDCF10F0C3EC15F00FC015F010C0E3
:1013080016F0000E186E0A0E176ECDEC14F0151EAE
:10131800161E154A162A155000017B250001916FEB
:10132800165000017C210001926F000120EE02F0AE
:101338007951D9267A51DA22DECF0FF0DDCF10F0BD
:10134800000E126E0A0E116EC3EC15F00FC093F06A
:1013580010C094F0000120EE04F07951D9267A519A
:10136800DA22DECF15F0DDCF16F0000E186E0A0E69
:10137800176ECDEC14F015C07BF016C07CF0000E93
:10138800126E0A0E116E000120EE04F07951D92672
:101398007A51DA22DECF0FF0DDCF10F0C3EC15F072
:1013A8000FC015F010C016F0000E186E0A0E176E5A
:1013B800CDEC14F0151E161E154A162A15500001FC
:1013C8007B250001956F165000017C210001966F66
:1013D800000120EE04F07951D9267A51DA22DECFC5
:1013E8000FF0DDCF10F0000E126E0A0E116EC3EC76
:1013F80015F00FC097F010C098F07D0E1B6E000E10
:101408001C6E380E1D6E080E1E6E8DC01FF08EC02D
:1014180020F08FC021F090C022F091C023F092C03C
:1014280024F093C025F094C026F095C027F096C00C
:1014380028F097C029F098C02AF0E3EC0EF0400E8F
:1014480029EC16F07D0E116E000E126EFBEC15F0F5
:101458000001B3050001B411D8A424D1000120EE85
:1014680004F07751D9267851DA22DECF15F0DDCF96
:1014780016F0000E186E0A0E176ECDEC14F015C09B
:101488007BF016C07CF0000E126E0A0E116E000181
:1014980020EE04F07751D9267851DA22DECF0FF00A
:1014A800DDCF10F0C3EC15F00FC015F010C016F02A
:1014B800000E186E0A0E176ECDEC14F0151E161ECF
:1014C800154A162A155000017B250001996F165000
:1014D80000017C2100019A6F000120EE04F0775191
:1014E800D9267851DA22DECF0FF0DDCF10F0000ECA
:1014F800126E0A0E116EC3EC15F00FC09BF010C0EF
:101508009CF077C0D9FF78C0DAFFDECF15F0DDCFC9
:1015180016F0000E186E0A0E176ECDEC14F015C0FA
:101528007BF016C07CF0000E126E0A0E116E77C0AA
:10153800D9FF78C0DAFFDECF0FF0DDCF10F0C3ECB3
:1015480015F00FC015F010C016F0000E186E0A0E38
:10155800176ECDEC14F0151E161E154A162A1550D6
:1015680000017B2500019D6F165000017C210001C0
:101578009E6F77C0D9FF78C0DAFFDECF0FF0DDCFDE
:1015880010F0000E126E0A0E116EC3EC15F00FC0AB
:101598009FF010C0A0F0000120EE02F07751D9268C
:1015A8007851DA22DECF15F0DDCF16F0000E186E76
:1015B8000A0E176ECDEC14F015C07BF016C07CF047
:1015C800000E126E0A0E116E000120EE02F0775125
:1015D800D9267851DA22DECF0FF0DDCF10F0C3EC38
:1015E80015F00FC015F010C016F0000E186E0A0E98
:1015F800176ECDEC14F0151E161E154A162A155036
:1016080000017B250001A16F165000017C2100011B
:10161800A26F000120EE02F07751D9267851DA2224
:10162800DECF0FF0DDCF10F0000E126E0A0E116E35
:10163800C3EC15F00FC0A3F010C0A4F07D0E1B6E14
:10164800000E1C6E0B0E1D6E080E1E6E99C01FF04C
:101658009AC020F09BC021F09CC022F09DC023F0CE
:101668009EC024F09FC025F0A0C026F0A1C027F09E
:10167800A2C028F0A3C029F0A4C02AF0E3EC0EF021
:10168800000E29EC16F0840E116E080E126EFBEC9B
:1016980015F0400E29EC16F07D0E116E000E126E3C
:1016A800FBEC15F0020E0001B3190001B411D8A427
:1016B8001AD0AAC068F0ABC069F0ACC06AF02DECD3
:1016C80012F0000E29EC16F0730E116E080E126E51
:1016D800FBEC15F0400E29EC16F0C50E116E000E4D
:1016E800126EFBEC15F0030E0001B3190001B411E2
:1016F800D8A41200F0EC17F0120020EE02F00F5000
:10170800D9261050DA22DE2A000EDD2220EE02F061
:101718000F50D9261050DA22010EDBBE18D0010E68
:10172800DB5004E13C0EDE5CD8A011D00FC0D9FF1D
:1017380010C0DAFFDE2A000EDD2220EE02F00F5084
:10174800D9261050DA22000EDE6E000EDD6E20EE75
:1017580002F00F50D9261050DA22010EDBAE11D05C
:1017680020EE02F00F50D9261050DA223B0EDE6E22
:10177800000EDD6E0FC0D9FF10C0DAFFDE06000EC6
:10178800DD5A0FC0D9FF10C0DAFF010EDBBE18D03A
:10179800010EDB5004E13C0EDE5CD8A011D020EE37
:1017A80004F00F50D9261050DA22DE2A000EDD226E
:1017B8000FC0D9FF10C0DAFF000EDE6E000EDD6E1E
:1017C8000FC0D9FF10C0DAFF010EDBAE11D00FC079
:1017D800D9FF10C0DAFF3B0EDE6E000EDD6E20EE84
:1017E80004F00F50D9261050DA22DE06000EDD5A1A
:1017F80020EE04F00F50D9261050DA22010EDBBE7D
:1018080018D0010EDB5004E1180EDE5CD8A011D010
:1018180011C0D9FF12C0DAFFDE2A000EDD2220EE49
:1018280004F00F50D9261050DA22000EDE6E000E9A
:10183800DD6E20EE04F00F50D9261050DA22010E8A
:10184800DBAE11D020EE04F00F50D9261050DA226A
:10185800170EDE6E000EDD6E11C0D9FF12C0DAFF62
:10186800DE06000EDD5A11C0D9FF12C0DAFF10EEF5
:1018780002F01150E1261250E222E6CF15F0E5CF32
:1018880016F0D89015361636E10E1524E16E000EC6
:101898001620E26EDE50E65CE650800A196EDE50D5
:1018A800800A1958D8B011D020EE02F01150D9266C
:1018B8001250DA22DE2A000EDD2211C0D9FF12C032
:1018C800DAFF010EDE6E000EDD6E11C0D9FF12C008
:1018D800DAFF010EDBBE06D0010EDB5027E1DE0485
:1018E800D8B024D020EE02F01150D9261250DA22B6
:1018F800DE06000EDD5A20EE02F01150D9261250F5
:10190800DA22DECF13F0DDCF14F0D8901336143678
:10191800E10E1324D96E000E1420DA6E11C0E1FF17
:1019280012C0E2FFDECFE6FFDDCFE5FF20EE02F0DA
:101938001150D9261250DA22010EDBBE1AD0010E40
:10194800DB5004E10D0EDE5CD8A013D020EE04F0CD
:101958001150D9261250DA22DE2A000EDD2220EE9E
:1019680002F01150D9261250DA22010EDE6E000E56
:10197800DD6E20EE02F01150D9261250DA22010E47
:10198800DBBE06D0010EDB5031E1DE04D8B02ED02C
:1019980020EE02F01150D9261250DA220C0EDE6E1B
:1019A800000EDD6E20EE02F01150D9261250DA2218
:1019B800DECF13F0DDCF14F0D89013361436E10ED5
:1019C8001324D96E000E1420DA6E11C0E1FF12C084
:1019D800E2FFDECFE6FFDDCFE5FF20EE04F0115099
:1019E800D9261250DA22DE06000EDD5A20EE04F067
:1019F8001150D9261250DA22010EDBBE11D0010E89
:101A0800DB5004E1640EDE5CD8A00AD020EE04F0BE
:101A18001150D9261250DA22000EDE6E000EDD6E4D
:101A280020EE04F01150D9261250DA22010EDBAE56
:101A3800120020EE04F01150D9261250DA22630E5B
:101A4800DE6E000EDD6E1200000E0001DE6F000E6D
:101A5800DD6F000E0001DC6F000EDB6F000E000171
:101A6800E06F000EDF6F000E0001D86F050ED76F14
:101A7800000E0001D66F000ED56F000E0001DA6F60
:101A8800000ED96F000E0001D06F010ECF6F000E4F
:101A98000001D26F010ED16F000E0001D46F130E3A
:101AA800D36FD58EF28AF294D59CD596D580D592EF
:101AB800D584D59A090ED76EE70ED66ED58EF28EDE
:101AC800F28C0F0EC16E9282010E926E80921F0EE2
:101AD800AF6E900EAB6E200EAC6E949C948E9E9A58
:101AE8009F9A9D8AF28C92EC17F0D4EC17F09292A0
:101AF8009294000E936E9580958295849586DB0E60
:101B0800136E000E146ED50E156E000E166ECF0EE7
:101B1800176E000E186E54EC04F037EC14F0BFEC9E
:101B280016F04F04D8A43BD0DB0E0F6E000E106EDB
:101B3800CF0E116E000E126E81EC0BF00C0EFDEC48
:101B480016F0DB0E0001756F000E0001766FD50EE2
:101B58000001776F000E0001786FCF0E0001796FDA
:101B6800000E00017A6FF0EC07F00F0EFDEC16F096
:101B780027EC10F08084020E0001A66FC70E00014A
:101B8800A56F880EE82EFED7A52FFCD7A62FFAD76B
:101B980000F080944E04D8A402D0474A482A000195
:101BA800D7510001DD191EE10001D8510001DE19ED
:101BB800D8A418D00001D5510001DB1913E10001A8
:101BC800D6510001DC19D8A40DD00001D95100016B
:101BD800DF1908E10001DA510001E019D8A402D0A8
:101BE800010E4E6E4E04D8A408D048BE05D0485009
:101BF80004E10A0E475CD8A080820A0E47184810F4
:101C0800D8A47DD7000E486E000E476E000E4E6EAB
:101C180076D719C01DF01E6A1F6A18341D3601E3F5
:101C28001E801D50226E1CC01DF01E6A1F6A1B34C8
:101C38001D3601E31E801D50216E2250D8B40BD0F2
:101C48002150225CD8B00ED02250000821241D6EED
:101C5800180E1D6407D01AC017F01BC018F01CC05E
:101C680019F012002150D8B40BD02250215CD8B002
:101C78000ED02150000822241D6E180E1D6407D0B6
:101C880017C017F018C018F019C019F01200060E86
:101C9800206E19BE208E1CBE208C188EFF0E1716C3
:101CA800FF0E1816000E19161B8EFF0E1A16FF0EC1
:101CB8001B16000E1C162150225CD8B01BD0D890E1
:101CC8001A361B361C36210622502118D8B40DD0DE
:101CD800200620C01DF0070E1D16D8B406D0EFD779
:101CE800D890193218321732222A21502218D8B423
:101CF8001FD0F6D72250215CD8B01AD0D89017360A
:101D080018361936220622502118D8B40DD02006CC
:101D180020C01DF0070E1D16D8B406D0EFD7D890F6
:101D28001C321B321A32212A21502218D8A4F7D784
:101D380020AE0CD0FF0E171AFF0E181AFF0E191A34
:101D4800010E1726000E1822000E192220AC0CD006
:101D5800FF0E1A1AFF0E1B1AFF0E1C1A010E1A2666
:101D6800000E1B22000E1C22000E206E17501A2691
:101D780018501B2219501C221CAE0ED0FF0E1A1A26
:101D8800FF0E1B1AFF0E1C1A010E1A26000E1B222C
:101D9800000E1C22010E206E1AC00FF01BC010F09E
:101DA8001CC011F022C012F020C013F08EEC13F00A
:101DB8000FC017F010C018F011C019F012001F0E54
:101DC8002C6E000E2D6E8CD0250E3218D8B409D08A
:101DD8001BC0D9FF1CC0DAFF32C0DFFF1B4A1C2A18
:101DE8007FD0000E2E6E1DC0F6FF1EC0F7FF1D4AE5
:101DF8001E2A0800F5CF32F03250000AD8B47CD041
:101E0800640AD8B403D00D0AD8A46AD02CC0D9FF6C
:101E18002DC0DAFFDECF30F0DDCF31F0020E2C26F8
:101E2800000E2D2231AE06D0030E2E12306C311E5C
:101E3800D8B0312A010E326E050E3218D8B412D03D
:101E48003250020D010EF324F66E080EF420F76EE0
:101E58000900F550305C0900F5503158D8A002D07F
:101E6800322AEAD72EC02BF0030E2B16D8B408D08E
:101E78001BC0D9FF1CC0DAFF2D0EDF6E1B4A1C2ABF
:101E880032C02FF029D02F50020D010EF324F66E28
:101E9800080EF420F76E0900F5CF11F00A00F5CF0F
:101EA80012F030C00FF031C010F052EC16F00FC035
:101EB80016F010C017F0000E196E0A0E186E9EEC80
:101EC80016F01650300F326E1BC0D9FF1CC0DAFF57
:101ED80032C0DFFF1B4A1C2A2F062F28D8A4D3D7CD
:101EE8001DC0F6FF1EC0F7FF1D4A1E2A0800F5CFC9
:101EF80032F03250D8A468D71BC0D9FF1CC0DAFF13
:101F0800000EDF6E120020EE02F00F50D92610509E
:101F1800DA22010EDBBE18D0010EDB5004E13C0EC4
:101F2800DE5CD8A011D00FC0D9FF10C0DAFFDE2ABE
:101F3800000EDD2220EE02F00F50D9261050DA22D2
:101F4800000EDE6E000EDD6E20EE02F00F50D92678
:101F58001050DA22010EDBAE11D020EE02F00F5045
:101F6800D9261050DA223B0EDE6E000EDD6E0FC051
:101F7800D9FF10C0DAFFDE06000EDD5A0FC0D9FF08
:101F880010C0DAFF010EDBBE18D0010EDB5004E1F1
:101F98003C0EDE5CD8A011D020EE04F00F50D926FC
:101FA8001050DA22DE2A000EDD220FC0D9FF10C041
:101FB800DAFF000EDE6E000EDD6E0FC0D9FF10C016
:101FC800DAFF010EDBAE11D00FC0D9FF10C0DAFF67
:101FD8003B0EDE6E000EDD6E20EE04F00F50D926AB
:101FE8001050DA22DE06000EDD5A20EE04F00F5003
:101FF800D9261050DA22010EDBBE11D0010EDB50BB
:1020080004E1180EDE5CD8A00AD020EE04F00F50D0
:10201800D9261050DA22000EDE6E000EDD6E20EE9C
:1020280004F00F50D9261050DA22010EDBAE120050
:1020380020EE04F00F50D9261050DA22170EDE6E6B
:10204800000EDD6E12000001B3510001B411D8A4D6
:102058005ED049504A10D8A403D0060E29EC16F0D9
:1020680049044A10D8A403D0070E29EC16F0020E32
:1020780049184A10D8A403D0090E29EC16F0030E0B
:1020880049184A10D8A403D00A0E29EC16F0040EF9
:1020980049184A10D8A403D00C0E29EC16F0050EE6
:1020A80049184A10D8A403D00D0E29EC16F0060ED4
:1020B80049184A10D8A403D0460E29EC16F0070E8A
:1020C80049184A10D8A403D0470E29EC16F0080E78
:1020D80049184A10D8A403D0490E29EC16F0090E65
:1020E80049184A10D8A403D04A0E29EC16F00A0E53
:1020F80049184A10D8A403D04C0E29EC16F00B0E40
:1021080049184A10D8A403D04D0E29EC16F0000146
:10211800B3050001B411D8A4120049504A10D8A43C
:1021280003D0400E29EC16F049044A10D8A403D075
:10213800410E29EC16F0020E49184A10D8A403D013
:10214800430E29EC16F0030E49184A10D8A403D000
:10215800440E29EC16F0040E49184A10D8A403D0EE
:10216800460E29EC16F0050E49184A10D8A412009C
:10217800470E29EC16F012002BC02DF02E6A2F6A9C
:102188002A342D3601E32E802D50376E3750D8A4CF
:1021980009D0000E296E000E2A6E000E2B6E000E5E
:1021A8002C6E1200170E2D6E29C02EF02AC02FF0AB
:1021B8002BC030F02D28316E04D0D89030322F3219
:1021C8002E32312EFAD72E50326E2A8EFF0E291655
:1021D800FF0E2A16000E2B162950336E2A50346E25
:1021E8002B50356E366A8E0E375E37AE16D03750A6
:1021F800800A8F0FD8B009D0000E296E000E2A6E03
:10220800000E2B6E000E2C6E1200D890363235322E
:1022180034323332373EF9D715D0170E37640FD022
:10222800000E296E000E2A6E000E2B6E000E2C6E0C
:102238001200D890333634363536363637063750AE
:10224800D8A4F7D73250D8B408D0361E351E341E5D
:10225800336C000E34223522362233C029F034C0C4
:102268002AF035C02BF036C02CF012001CC020F02C
:10227800216A226A1B34203601E321802050236E14
:102288002350D8A407D0000E1A6E000E1B6E000E45
:102298001C6E12001FC020F0216A226A1E342036EC
:1022A80001E321802050286E2850D8A407D0000EC2
:1022B8001A6E000E1B6E000E1C6E120028507B0F4B
:1022C80023261CC028F01F50281A800E28161B8EA3
:1022D8001E8EFF0E1D16FF0E1E16000E1F16000E78
:1022E800246E000E256E000E266E070E276E1AA0AD
:1022F80006D01D5024261E5025221F502622D89075
:102308001C321B321A32D8901D361E361F36272E25
:10231800EED7090E276E1AA006D01D5024261E508F
:1023280025221F502622D8901C321B321A32D890F0
:10233800263225322432272EEED724C00FF025C0AE
:1023480010F026C011F023C012F028C013F08EEC54
:1023580013F00FC01AF010C01BF011C01CF01200CF
:1023680060C00FF061C010F062C011F0660E126E0E
:10237800000E136E4BEC15F0000167AF17D000018B
:1023880062AF0AD0000E0001606F800E0001616F1D
:10239800BF0E0001626F1200000E0001606F000E98
:1023A8000001616F000E0001626F120000016751A9
:1023B80005E1150E0001665DD8A007D060C060F089
:1023C80061C061F062C062F0120060C029F061C0B3
:1023D8002AF062C02BF0C0EC10F029C038F02AC0F7
:1023E80039F02BC03AF02CC03BF087EC15F038C020
:1023F80063F039C064F03AC065F060C00FF061C0A6
:1024080010F062C011F063C012F064C013F065C030
:1024180014F085EC14F0D8B015D063C017F064C080
:1024280018F065C019F0000E1A6E800E1B6EBF0EF4
:102438001C6E0DEC0EF017C060F018C061F019C0EA
:1024480062F0120063C060F064C061F065C062F0C1
:10245800120068C01AF069C01BF06AC01CF0000EB8
:102468001D6EC80E1E6E420E1F6E3AEC11F01AC099
:1024780068F01BC069F01CC06AF068C060F069C0F1
:1024880061F06AC062F0B4EC11F060C072F061C033
:1024980073F062C074F072C00FF073C010F074C0B3
:1024A80011F06EEC17F00FC017F010C018F011C043
:1024B80019F068C01AF069C01BF06AC01CF00DEC76
:1024C8000EF017C06BF018C06CF019C06DF072C038
:1024D80029F073C02AF074C02BF0C0EC10F029C0AA
:1024E8006EF02AC06FF0000E1D6EC80E1E6E420EF2
:1024F8001F6E6BC01AF06CC01BF06DC01CF03AEC7C
:1025080011F01AC029F01BC02AF01CC02BF0C0EC37
:1025180010F029C070F02AC071F0C50E1B6E000EB5
:102528001C6E950E1D6E080E1E6E6EC01FF06FC0DD
:1025380020F070C021F071C022F0E3EC0EF0120020
:102548000600FACF01F0FBCF02F0E9CF03F0EACFA3
:1025580004F0E1CF05F0E2CF06F0D9CF07F0DACFEB
:1025680008F0F3CF09F0F4CF0AF0F6CF0BF0F7CF6D
:102578000CF0F8CF0DF0F5CF0EF0F2A40AD0090E4A
:10258800D76EE70ED66EF2940001B14BB22B000E57
:102598004F6E0001B2BF0ED00001B25104E100013C
:1025A800B105D8A007D0010E4F6E000E0001B26F22
:1025B800000EB16F9EAA1DD0465011E1030E455C76
:1025C800D8B00DD09EAAFED7A70E4524D96E000E0E
:1025D8004620DA6EAECFDFFF454A462A0AD09E9AD9
:1025E800000E466E000E456E000E0001B06F310EF3
:1025F800AF6F0EC0F5FF0DC0F8FF0CC0F7FF0BC0A2
:10260800F6FF0AC0F4FF09C0F3FF08C0DAFF07C0ED
:10261800D9FF06C0E2FF05C0E1FF04C0EAFF03C01E
:10262800E9FF02C0FBFF01C0FAFF509211002BC066
:102638002FF0306A316A2A342F3601E330802F5068
:10264800366E3650D8A407D0000E296E000E2A6EBA
:10265800000E2B6E12002EC02FF0306A316A2D3416
:102668002F3601E330802F50376E3750D8A407D06B
:10267800000E296E000E2A6E000E2B6E1200000E40
:10268800336E000E346E000E356E3750890F365E8D
:102698002BC037F02E50371A800E37162A8EFF0EB1
:1026A8002916FF0E2A16000E2B162D8EFF0E2C163D
:1026B800FF0E2D16000E2E16180E326ED8903336D9
:1026C800343635362C50295C2D502A582E502B582C
:1026D800D8A007D02C50295E2D502A5A2E502B5A9C
:1026E8003380D89029362A362B36322EE7D733C096
:1026F8000FF034C010F035C011F036C012F037C0FA
:1027080013F08EEC13F00FC029F010C02AF011C09E
:102718002BF012001250D8B405D00F501010111021
:10272800D8A40CD0000E0F6E000E106E000E116EA5
:102738001200122AD890113210320F32000E0F14E4
:10274800146E000E1014156EFE0E1114166E145031
:1027580015101610D8B40CD0ECD7122A010E0F267B
:10276800000E1022000E1122D890113210320F32B2
:10277800000E0F14146E000E1014156EFF0E1114B7
:10278800166E145015101610D8B406D0E6D71206D7
:10279800D8900F361036113610BE03D0020E1260D4
:1027A800F6D712A0109ED890123212501112135060
:1027B800D8A4118E0FC00FF010C010F011C011F086
:1027C8001200146EF00E8116F00E9316939C939AD5
:1027D80093988A9C8A9A8A98E8EC17F0300EFDEC58
:1027E80016F0050EAEEC17F0300EFDEC16F0010EEB
:1027F800AEEC17F0320EFDEC16F01CEC17F00009E9
:10280800D8A4FBD71CEC17F00009D8A4FBD71450A8
:10281800FDEC16F01CEC17F00009D8A4FBD7080E45
:10282800FDEC16F01CEC17F00009D8A4FBD70F0E2E
:10283800FDEC16F01CEC17F00009D8A4FBD7010E2C
:10284800FDEC16F01CEC17F00009D8A4FBD7040E19
:10285800FDEC16F01CEC17F00009D8A4FBD7800E8D
:1028680029EC16F01200000E4C6E000E4B6E000E96
:10287800386E020E386401D01200870EB9EC17F0DA
:10288800F3EC17F0E2EC17F00009D8A4FBD7DBEC67
:1028980017F00F504B2610504C22000E1D6EA00E44
:1028A8001E6E400E1F6E000E126E030E116E4BC090
:1028B8000FF04CC010F052EC16F00FC017F010C01B
:1028C80018F080EC17F017C01AF018C01BF019C0E8
:1028D8001CF03AEC11F01AC029F01BC02AF01CC0F9
:1028E8002BF0C00E2C6E7F0E2D6E440E2E6E1BEC40
:1028F80013F029C0AAF02AC0ABF02BC0ACF0382ADC
:10290800B8D711AE16D00FC015F010C016F011C010
:1029180017F0151E161E171E152A000E162217224E
:10292800000E15240F6E000E1620106E800E172054
:10293800116E14AE16D012C015F013C016F014C0E4
:1029480017F0151E161E171E152A000E162217221E
:10295800000E1524126E000E1620136E800E17201E
:10296800146E000E0F1A000E101A800E111A000EA7
:10297800121A000E131A800E141A12500F5C1350FC
:10298800105814501158D8B002D0D8901200D880DE
:102998001200000E1A6E18AE06D0176C181ED8B0AA
:1029A800182A010E1A6E16AE06D0156C161ED8B06F
:1029B800162A010E1A1A000E1C6E000E1B6E1750F6
:1029C8001810D8B41CD0010E196E04D0D890173640
:1029D8001836192A18AEFAD7D8901B361C36175055
:1029E800155C18501658D8A005D01750155E185009
:1029F800165A1B80D89018321732192EEDD71A5054
:102A0800D8B404D01B6C1C1ED8B01C2A1BC015F0EF
:102A18001CC016F012000C0EFDEC16F0000E29EC8E
:102A280016F0B50E1B6E000E1C6E620E1D6E080EA3
:102A38001E6EE3EC0EF0B50E116E000E126EFBEC7E
:102A480015F0400E29EC16F0B50E1B6E000E1C6E2C
:102A58004E0E1D6E080E1E6ED00E43241F6E206A89
:102A6800FF0E2022D00E4424216E226AFF0E22225D
:102A7800D00E4224236E246AFF0E2422E3EC0EF0CB
:102A8800B50E116E000E126EFBEC15F012000F5011
:102A980010101110D8A409D012C0D9FF13C0DAFF42
:102AA800000EDE6E000EDD6E120011507F0B146EEC
:102AB800156AD8901436153612C0D9FF13C0DAFF3C
:102AC80014C0DEFF15C0DDFF10AE03D0146A142A4F
:102AD80001D0146A145012C0D9FF13C0DAFFDE12F5
:102AE800000EDD1212C0D9FF13C0DAFF820EDE26F7
:102AF800FF0EDD2211801182118411861188118A3E
:102B0800119C109E1200000E416E8E0E406E3BAE60
:102B180011D03B1E3A1E391E386C000E39223A225B
:102B28003B22010E416E06D0D8903B323A32393200
:102B38003832402A000E38143C6E000E39143D6EAF
:102B4800000E3A143E6EFF0E3B143F6E3C503D1093
:102B58003E103F10D8A4E8D738C00FF039C010F0A5
:102B68003AC011F040C012F041C013F08EEC13F0DF
:102B78000FC038F010C039F011C03AF01200000E42
:102B8800146E10AE06D00F6C101ED8B0102A010EAD
:102B9800146E12AE04D0116C121ED8B0122A115045
:102BA8001210D8B418D0010E136E04D0D890113674
:102BB8001236132A12AEFAD711500F5C1250105861
:102BC800D8A004D011500F5E1250105AD89012326B
:102BD8001132132EF1D71450D8B404D00F6C101E34
:102BE800D8B0102A0FC00FF010C010F0120019D082
:102BF8001CEC17F00009D8A4FBD711C0F6FF12C0CF
:102C0800F7FFF86A070EF76403D00800F55005D0FF
:102C1800F6CFE1FFF7CFE2FFE750DEEC16F0114AFE
:102C2800122A11C0F6FF12C0F7FFF86A070EF76400
:102C380003D00800F55005D0F6CFE1FFF7CFE2FF4B
:102C4800E7500009D8B41200D3D7136EF00E9316CC
:102C5800F00E81161350106E116A108E040E126E4B
:102C6800113411321032122EFBD710500F0B811273
:102C78008A9C8A9AECEC17F08A88ECEC17F08A9810
:102C8800F00E811613500F0B8112ECEC17F08A88A6
:102C9800ECEC17F08A980F0E93121200000E146EC7
:102CA800000E136E11501210D8B41CD0010E156E00
:102CB80004D0D89011361236152A12AEFAD7D89009
:102CC8001336143611500F5C12501058D8A005D086
:102CD80011500F5E1250105A1380D89012321132D0
:102CE800152EEDD713C00FF014C010F01200420ECD
:102CF800F66E2F0EF76E000EF86E00EEE1F010EE95
:102D08001AF00900F5CFEEFFE550E150FAE100EEC8
:102D1800A7F03A0EEE6AE806FDE100EE42F00E0E6C
:102D2800EE6AE806FDE150905092000EF86E000140
:102D380028EF0DF018501910D8B418D0010E1A6EDB
:102D480004D0D890183619361A2A19AEFAD718505E
:102D5800165C19501758D8A004D01850165E195090
:102D6800175AD890193218321A2EF1D716C016F001
:102D780017C017F012000BD055EC17F0120039EC01
:102D880017F0000E0001B06F300EAF6F1200AFC029
:102D980011F0B0C012F01250000AD8A4120011505D
:102DA800300AD8B41200010AD8B4E6D7030AD8A466
:102DB8001200E5D7106EF00E9316F00E811610383B
:102DC8000F0B0F0B81128A8A8A9CECEC17F08A8809
:102DD800ECEC17F08A98F00E811610500F0B811248
:102DE800ECEC17F08A88ECEC17F08A980F0E931227
:102DF8001200106EF00E9316F00E811610380F0B9D
:102E08000F0B81128A9C8A9AECEC17F08A88ECECFA
:102E180017F08A98F00E811610500F0B8112ECEC07
:102E280017F08A88ECEC17F08A980F0E93121200AC
:102E38008A8C8A9AECEC17F08A88ECEC17F081A659
:102E48000AD08A98ECEC17F08A88ECEC17F08A988C
:102E58008A9C010E12008A98ECEC17F08A88ECEC38
:102E680017F08A988A9C000E12009EA8FED7000EC2
:102E7800106E000E0F6E10BE06D0105011E1030E3A
:102E88000F5CD8B012009EA8FED7420E0F24D96E50
:102E9800000E1020DA6EDF50AD6E0F4A102AEBD705
:102EA80012008280050E106E910E0F6ED00EE82E65
:102EB800FED70F2EFCD7102EFAD78290A7C042F06B
:102EC800A8C043F0A9C044F0000E0001B06F320E54
:102ED800AF6F12000F5010101110D8B406D0000EAA
:102EE8000F1A000E101A800E111A0FC00FF010C022
:102EF80010F011C011F0120017C00FF018C010F038
:102F0800116A8E0E126E000E136E8EEC13F00FC047
:102F180017F010C018F011C019F01200280EE5ECD7
:102F280013F01CEC17F00009D8A4FBD7060EFDEC33
:102F380016F00C0EFDEC16F0120000001F001C002D
:102F48001F001E001F001E001F001F001E001F0084
:102F58001E001F00106E0D0E0F6EFC0EE82EFED721
:102F68000F2EFCD7102EF7D71200106EC2CF0FF01D
:102F7800C30E0F16D89010303C0B0F10C26E120003
:102F88000F6EC80E00D0E82EFDD70F2EFAD712000C
:102F98000F6E030EE82EFED700F00F2EFAD71200A0
:102FA800AE0EC06E030EC26E0D0EC16E1200C4507E
:102FB800116EC3500F6E11C010F01200C2A202D0E1
:102FC800010E1200000E1200B40EC4EC17F012002D
:102FD800780ECCEC17F012000FEC15F01200C2823C
:022FE8001200D5
:020000040020DA
:08000000FFFFFFFFFFFFFFFF00
:020000040030CA
:0E00000000051F1EFF8185FF0FC00FE00F409F
:00000001FF
