:0400000007EF00F016
:0A0008005082E8ED12F0F1EF15F060
:100800000001000A006400E8031027256425643A0B
:10081000256425643A25642564202020202020209A
:100820002000484F52413A20256425643A2564252A
:10083000643A256425642000444154413A202564EB
:1008400025643A256425643A2564256420005445CE
:100850004D50455241545552413A202020200044E9
:1008600045535045525441444F523A2020202000D5
:1008700025642C2564206F43202020202020202068
:10088000000083A014D0050E1A6E910E196ED00EC2
:10089000E82EFED7192EFCD71A2EFAD70001AE4B40
:1008A000AF2B000E456E000E446E83B0FED70001E4
:1008B000AFBF0DD00001AF5105E1030E0001AE5DE9
:1008C000D8A005D0000E0001AF6F000EAE6F83A25E
:1008D0008CD1050E1A6E910E196ED00EE82EFED731
:1008E000192EFCD71A2EFAD70001AE510001AF1114
:1008F000D8A4F4D044504510D8A418D020EE04F069
:100900001350D9261450DA22DECF19F0DDCF1AF0B9
:100910000A0E1926000E1A2220EE04F01350D926D2
:100920001450DA2219C0DEFF1AC0DDFF440445105E
:10093000D8A409D020EE04F01350D9261450DA229E
:10094000DE2A000EDD22020E44184510D8A414D071
:1009500013C0D9FF14C0DAFFDECF19F0DDCF1AF0D3
:100960000A0E1926000E1A2213C0D9FF14C0DAFF8E
:1009700019C0DEFF1AC0DDFF030E44184510D8A4CD
:1009800007D013C0D9FF14C0DAFFDE2A000EDD2223
:10099000040E44184510D8A418D020EE02F01350CD
:1009A000D9261450DA22DECF19F0DDCF1AF00A0E64
:1009B0001926000E1A2220EE02F01350D9261450E8
:1009C000DA2219C0DEFF1AC0DDFF050E44184510FB
:1009D000D8A409D020EE02F01350D9261450DA2200
:1009E000DE2A000EDD22060E44184510D8A414D0CD
:1009F00017C0D9FF18C0DAFFDECF19F0DDCF1AF02B
:100A00000A0E1926000E1A2217C0D9FF18C0DAFFE5
:100A100019C0DEFF1AC0DDFF070E44184510D8A428
:100A200007D017C0D9FF18C0DAFFDE2A000EDD227A
:100A3000080E44184510D8A418D020EE02F0175024
:100A4000D9261850DA22DECF19F0DDCF1AF00A0EBF
:100A50001926000E1A2220EE02F01750D92618503F
:100A6000DA2219C0DEFF1AC0DDFF090E4418451056
:100A7000D8A409D020EE02F01750D9261850DA2257
:100A8000DE2A000EDD220A0E44184510D8A418D024
:100A900020EE04F01750D9261850DA22DECF19F0D4
:100AA000DDCF1AF00A0E1926000E1A2220EE04F0ED
:100AB0001750D9261850DA2219C0DEFF1AC0DDFF00
:100AC0000B0E44184510D8A409D020EE04F017509E
:100AD000D9261850DA22DE2A000EDD220001AE05EA
:100AE0000001AF11D8A47FD044504510D8A418D02D
:100AF00020EE04F01550D9261650DA22DECF19F078
:100B0000DDCF1AF00A0E1926000E1A2220EE04F08C
:100B10001550D9261650DA2219C0DEFF1AC0DDFFA3
:100B200044044510D8A409D020EE04F01550D9266D
:100B30001650DA22DE2A000EDD22020E441845107D
:100B4000D8A414D015C0D9FF16C0DAFFDECF19F033
:100B5000DDCF1AF00A0E1926000E1A2215C0D9FF91
:100B600016C0DAFF19C0DEFF1AC0DDFF030E4418FD
:100B70004510D8A407D015C0D9FF16C0DAFFDE2A69
:100B8000000EDD22040E44184510D8A418D020EE23
:100B900002F01550D9261650DA22DECF19F0DDCF3B
:100BA0001AF00A0E1926000E1A2220EE02F0155035
:100BB000D9261650DA2219C0DEFF1AC0DDFF050E55
:100BC00044184510D8A409D020EE02F01550D926BB
:100BD0001650DA22DE2A000EDD2215C00FF016C0F4
:100BE00010F058EC0FF083B2FED783A4B0D1050EFD
:100BF0001A6E910E196ED00EE82EFED7192EFCD764
:100C00001A2EFAD70001AE510001AF11D8A40CD1B1
:100C100044504510D8A41CD0F60E196EFF0E1A6E63
:100C200020EE04F01350D9261450DA22DECF1BF048
:100C3000DDCF1CF019501B261A501C2220EE04F0A8
:100C40001350D9261450DA221BC0DEFF1CC0DDFF72
:100C500044044510D8A409D020EE04F01350D9263E
:100C60001450DA22DE06000EDD5A020E441845103A
:100C7000D8A418D0F60E196EFF0E1A6E13C0D9FF45
:100C800014C0DAFFDECF1BF0DDCF1CF019501B269D
:100C90001A501C2213C0D9FF14C0DAFF1BC0DEFF9C
:100CA0001CC0DDFF030E44184510D8A407D013C0A4
:100CB000D9FF14C0DAFFDE06000EDD5A040E441818
:100CC0004510D8A41CD0F60E196EFF0E1A6E20EE39
:100CD00002F01350D9261450DA22DECF1BF0DDCFFC
:100CE0001CF019501B261A501C2220EE02F0135043
:100CF000D9261450DA221BC0DEFF1CC0DDFF050E12
:100D000044184510D8A409D020EE02F01350D9267B
:100D10001450DA22DE06000EDD5A060E4418451085
:100D2000D8A418D0F60E196EFF0E1A6E17C0D9FF90
:100D300018C0DAFFDECF1BF0DDCF1CF019501B26E8
:100D40001A501C2217C0D9FF18C0DAFF1BC0DEFFE3
:100D50001CC0DDFF070E44184510D8A407D017C0EB
:100D6000D9FF18C0DAFFDE06000EDD5A080E44185F
:100D70004510D8A41CD0F60E196EFF0E1A6E20EE88
:100D800002F01750D9261850DA22DECF1BF0DDCF43
:100D90001CF019501B261A501C2220EE02F017508E
:100DA000D9261850DA221BC0DEFF1CC0DDFF090E59
:100DB00044184510D8A409D020EE02F01750D926C7
:100DC0001850DA22DE06000EDD5A0A0E44184510CD
:100DD000D8A41CD0F60E196EFF0E1A6E20EE04F089
:100DE0001750D9261850DA22DECF1BF0DDCF1CF0C9
:100DF00019501B261A501C2220EE04F01750D92639
:100E00001850DA221BC0DEFF1CC0DDFF0B0E441899
:100E10004510D8A409D020EE04F01750D926185058
:100E2000DA22DE06000EDD5A0001AE050001AF1128
:100E3000D8A48BD044504510D8A41CD0F60E196EFF
:100E4000FF0E1A6E20EE04F01550D9261650DA2245
:100E5000DECF1BF0DDCF1CF019501B261A501C22D0
:100E600020EE04F01550D9261650DA221BC0DEFF02
:100E70001CC0DDFF44044510D8A409D020EE04F0C6
:100E80001550D9261650DA22DE06000EDD5A020E63
:100E900044184510D8A418D0F60E196EFF0E1A6E1D
:100EA00015C0D9FF16C0DAFFDECF1BF0DDCF1CF076
:100EB00019501B261A501C2215C0D9FF16C0DAFF84
:100EC0001BC0DEFF1CC0DDFF030E44184510D8A474
:100ED00007D015C0D9FF16C0DAFFDE06000EDD5AB6
:100EE000040E44184510D8A41CD0F60E196EFF0E3F
:100EF0001A6E20EE02F01550D9261650DA22DECFF7
:100F00001BF0DDCF1CF019501B261A501C2220EEBE
:100F100002F01550D9261650DA221BC0DEFF1CC085
:100F2000DDFF050E44184510D8A409D020EE02F0CC
:100F30001550D9261650DA22DE06000EDD5A15C0ED
:100F40000FF016C010F058EC0FF083B4FED783A654
:100F50001200050E1A6E910E196ED00EE82EFED7F5
:100F6000192EFCD71A2EFAD7444A452A45BE10D06E
:100F7000455004E10C0E445CD8A00AD00001AE51EB
:100F80000001AF11D8A404D0000E456E000E446ECF
:100F900045BE10D0455004E1060E445CD8A00AD0EE
:100FA0000001AE050001AF11D8A404D0000E456EBB
:100FB000000E446E83A61200FDD70001AE51000161
:100FC000AF11D8A436D2000120EE04F07551D92615
:100FD0007651DA22DECF15F0DDCF16F0000E186E56
:100FE0000A0E176E7FEC14F015C07BF016C07CF073
:100FF000000E126E0A0E116E000120EE04F0755103
:10100000D9267651DA22DECF0FF0DDCF10F039ECA1
:1010100015F00FC015F010C016F0000E186E0A0E75
:10102000176E7FEC14F0151E161E154A162A155061
:1010300000017B250001996F165000017C21000101
:101040009A6F000120EE04F07551D9267651DA220C
:10105000DECF0FF0DDCF10F0000E126E0A0E116E13
:1010600039EC15F00FC09BF010C09CF075C0D9FF93
:1010700076C0DAFFDECF15F0DDCF16F0000E186E69
:101080000A0E176E7FEC14F015C07BF016C07CF0D2
:10109000000E126E0A0E116E75C0D9FF76C0DAFF0F
:1010A000DECF0FF0DDCF10F039EC15F00FC015F0EA
:1010B00010C016F0000E186E0A0E176E7FEC14F0BA
:1010C000151E161E154A162A155000017B25000113
:1010D0009D6F165000017C2100019E6F75C0D9FFE5
:1010E00076C0DAFFDECF0FF0DDCF10F0000E126E0B
:1010F0000A0E116E39EC15F00FC09FF010C0A0F071
:10110000000120EE02F07551D9267651DA22DECFA9
:1011100015F0DDCF16F0000E186E0A0E176E7FEC7C
:1011200014F015C07BF016C07CF0000E126E0A0E93
:10113000116E000120EE02F07551D9267651DA22A7
:10114000DECF0FF0DDCF10F039EC15F00FC015F049
:1011500010C016F0000E186E0A0E176E7FEC14F019
:10116000151E161E154A162A155000017B25000172
:10117000A16F165000017C210001A26F000120EE3A
:1011800002F07551D9267651DA22DECF0FF0DDCF8D
:1011900010F0000E126E0A0E116E39EC15F00FC031
:1011A000A3F010C0A4F07D0E1B6E000E1C6E220E6C
:1011B0001D6E080E1E6E99C01FF09AC020F09BC0D5
:1011C00021F09CC022F09DC023F09EC024F09FC05F
:1011D00025F0A0C026F0A1C027F0A2C028F0A3C02F
:1011E00029F0A4C02AF0B4EC0EF0000E9FEC15F02C
:1011F0007D0E116E000E126E71EC15F079C0D9FFE4
:101200007AC0DAFFDECF15F0DDCF16F0000E186ED3
:101210000A0E176E7FEC14F015C07BF016C07CF040
:10122000000E126E0A0E116E79C0D9FF7AC0DAFF75
:10123000DECF0FF0DDCF10F039EC15F00FC015F058
:1012400010C016F0000E186E0A0E176E7FEC14F028
:10125000151E161E154A162A155000017B25000181
:101260008D6F165000017C2100018E6F79C0D9FF6F
:101270007AC0DAFFDECF0FF0DDCF10F0000E126E75
:101280000A0E116E39EC15F00FC08FF010C090F0FF
:10129000000120EE02F07951D9267A51DA22DECF10
:1012A00015F0DDCF16F0000E186E0A0E176E7FECEB
:1012B00014F015C07BF016C07CF0000E126E0A0E02
:1012C000116E000120EE02F07951D9267A51DA220E
:1012D000DECF0FF0DDCF10F039EC15F00FC015F0B8
:1012E00010C016F0000E186E0A0E176E7FEC14F088
:1012F000151E161E154A162A155000017B250001E1
:10130000916F165000017C210001926F000120EEC8
:1013100002F07951D9267A51DA22DECF0FF0DDCFF3
:1013200010F0000E126E0A0E116E39EC15F00FC09F
:1013300093F010C094F0000120EE04F07951D9260A
:101340007A51DA22DECF15F0DDCF16F0000E186EDE
:101350000A0E176E7FEC14F015C07BF016C07CF0FF
:10136000000E126E0A0E116E000120EE04F079518B
:10137000D9267A51DA22DECF0FF0DDCF10F039EC2A
:1013800015F00FC015F010C016F0000E186E0A0E02
:10139000176E7FEC14F0151E161E154A162A1550EE
:1013A00000017B250001956F165000017C21000192
:1013B000966F000120EE04F07951D9267A51DA2295
:1013C000DECF0FF0DDCF10F0000E126E0A0E116EA0
:1013D00039EC15F00FC097F010C098F07D0E1B6E21
:1013E000000E1C6E380E1D6E080E1E6E8DC01FF096
:1013F0008EC020F08FC021F090C022F091C023F069
:1014000092C024F093C025F094C026F095C027F038
:1014100096C028F097C029F098C02AF0B4EC0EF0DE
:10142000400E9FEC15F07D0E116E000E126E71ECE9
:1014300015F00001AE050001AF11D8A424D10001C0
:1014400020EE04F07751D9267851DA22DECF15F05C
:10145000DDCF16F0000E186E0A0E176E7FEC14F03A
:1014600015C07BF016C07CF0000E126E0A0E116ED5
:10147000000120EE04F07751D9267851DA22DECF30
:101480000FF0DDCF10F039EC15F00FC015F010C0E3
:1014900016F0000E186E0A0E176E7FEC14F0151E73
:1014A000161E154A162A155000017B250001996F5A
:1014B000165000017C2100019A6F000120EE04F01B
:1014C0007751D9267851DA22DECF0FF0DDCF10F038
:1014D000000E126E0A0E116E39EC15F00FC09BF063
:1014E00010C09CF077C0D9FF78C0DAFFDECF15F0CE
:1014F000DDCF16F0000E186E0A0E176E7FEC14F09A
:1015000015C07BF016C07CF0000E126E0A0E116E34
:1015100077C0D9FF78C0DAFFDECF0FF0DDCF10F053
:1015200039EC15F00FC015F010C016F0000E186E53
:101530000A0E176E7FEC14F0151E161E154A162A99
:10154000155000017B2500019D6F165000017C2184
:1015500000019E6F77C0D9FF78C0DAFFDECF0FF0B1
:10156000DDCF10F0000E126E0A0E116E39EC15F080
:101570000FC09FF010C0A0F0000120EE02F07751E4
:10158000D9267851DA22DECF15F0DDCF16F0000E25
:10159000186E0A0E176E7FEC14F015C07BF016C0A3
:1015A0007CF0000E126E0A0E116E000120EE02F0A9
:1015B0007751D9267851DA22DECF0FF0DDCF10F047
:1015C00039EC15F00FC015F010C016F0000E186EB3
:1015D0000A0E176E7FEC14F0151E161E154A162AF9
:1015E000155000017B250001A16F165000017C21E0
:1015F0000001A26F000120EE02F07751D926785148
:10160000DA22DECF0FF0DDCF10F0000E126E0A0EE0
:10161000116E39EC15F00FC0A3F010C0A4F07D0ED0
:101620001B6E000E1C6E0B0E1D6E080E1E6E99C0FA
:101630001FF09AC020F09BC021F09CC022F09DC0FA
:1016400023F09EC024F09FC025F0A0C026F0A1C0CA
:1016500027F0A2C028F0A3C029F0A4C02AF0B4EC5F
:101660000EF0000E9FEC15F05F0E116E080E126E5C
:1016700071EC15F0400E9FEC15F07D0E116E000E12
:10168000126E71EC15F0020E0001AE190001AF11DF
:10169000D8A41200A7C068F0A8C069F0A9C06AF079
:1016A000FEEC11F0000E9FEC15F04E0E116E080EC0
:1016B000126E71EC15F0400E9FEC15F0B00E116E2D
:1016C000000E126E71EC15F0120020EE02F00F50B9
:1016D000D9261050DA22DE2A000EDD2220EE02F09A
:1016E0000F50D9261050DA22010EDBBE18D0010EA1
:1016F000DB5004E13C0EDE5CD8A011D00FC0D9FF56
:1017000010C0DAFFDE2A000EDD2220EE02F00F50BC
:10171000D9261050DA22000EDE6E000EDD6E20EEAD
:1017200002F00F50D9261050DA22010EDBAE11D094
:1017300020EE02F00F50D9261050DA223B0EDE6E5A
:10174000000EDD6E0FC0D9FF10C0DAFFDE06000EFE
:10175000DD5A0FC0D9FF10C0DAFF010EDBBE18D072
:10176000010EDB5004E13C0EDE5CD8A011D020EE6F
:1017700004F00F50D9261050DA22DE2A000EDD22A6
:101780000FC0D9FF10C0DAFF000EDE6E000EDD6E56
:101790000FC0D9FF10C0DAFF010EDBAE11D00FC0B1
:1017A000D9FF10C0DAFF3B0EDE6E000EDD6E20EEBC
:1017B00004F00F50D9261050DA22DE06000EDD5A52
:1017C00020EE04F00F50D9261050DA22010EDBBEB5
:1017D00018D0010EDB5004E1180EDE5CD8A011D049
:1017E00011C0D9FF12C0DAFFDE2A000EDD2220EE82
:1017F00004F00F50D9261050DA22000EDE6E000ED3
:10180000DD6E20EE04F00F50D9261050DA22010EC2
:10181000DBAE11D020EE04F00F50D9261050DA22A2
:10182000170EDE6E000EDD6E11C0D9FF12C0DAFF9A
:10183000DE06000EDD5A11C0D9FF12C0DAFF10EE2D
:1018400002F01150E1261250E222E6CF15F0E5CF6A
:1018500016F0D89015361636C60E1524E16E000E19
:101860001620E26EDE50E65CE650800A196EDE500D
:10187000800A1958D8B011D020EE02F01150D926A4
:101880001250DA22DE2A000EDD2211C0D9FF12C06A
:10189000DAFF010EDE6E000EDD6E11C0D9FF12C040
:1018A000DAFF010EDBBE06D0010EDB5027E1DE04BD
:1018B000D8B024D020EE02F01150D9261250DA22EE
:1018C000DE06000EDD5A20EE02F01150D92612502D
:1018D000DA22DECF13F0DDCF14F0D89013361436B1
:1018E000C60E1324D96E000E1420DA6E11C0E1FF6B
:1018F00012C0E2FFDECFE6FFDDCFE5FF20EE02F013
:101900001150D9261250DA22010EDBBE1AD0010E78
:10191000DB5004E10D0EDE5CD8A013D020EE04F005
:101920001150D9261250DA22DE2A000EDD2220EED6
:1019300002F01150D9261250DA22010EDE6E000E8E
:10194000DD6E20EE02F01150D9261250DA22010E7F
:10195000DBBE06D0010EDB5031E1DE04D8B02ED064
:1019600020EE02F01150D9261250DA220C0EDE6E53
:10197000000EDD6E20EE02F01150D9261250DA2250
:10198000DECF13F0DDCF14F0D89013361436C60E28
:101990001324D96E000E1420DA6E11C0E1FF12C0BC
:1019A000E2FFDECFE6FFDDCFE5FF20EE04F01150D1
:1019B000D9261250DA22DE06000EDD5A20EE04F09F
:1019C0001150D9261250DA22010EDBBE11D0010EC1
:1019D000DB5004E1640EDE5CD8A00AD020EE04F0F7
:1019E0001150D9261250DA22000EDE6E000EDD6E86
:1019F00020EE04F01150D9261250DA22010EDBAE8F
:101A0000120020EE04F01150D9261250DA22630E93
:101A1000DE6E000EDD6E120019C01DF01E6A1F6A18
:101A200018341D3601E31E801D50226E1CC01DF0AF
:101A30001E6A1F6A1B341D3601E31E801D50216E75
:101A40002250D8B40BD02150225CD8B00ED02250F6
:101A5000000821241D6E180E1D6407D01AC017F04F
:101A60001BC018F01CC019F012002150D8B40BD0C4
:101A70002250215CD8B00ED02150000822241D6EC7
:101A8000180E1D6407D017C017F018C018F019C041
:101A900019F01200060E206E19BE208E1CBE208C7E
:101AA000188EFF0E1716FF0E1816000E19161B8E35
:101AB000FF0E1A16FF0E1B16000E1C162150225C7C
:101AC000D8B01BD0D8901A361B361C3621062250AF
:101AD0002118D8B40DD0200620C01DF0070E1D1609
:101AE000D8B406D0EFD7D890193218321732222A3C
:101AF00021502218D8B41FD0F6D72250215CD8B07C
:101B00001AD0D890173618361936220622502118C6
:101B1000D8B40DD0200620C01DF0070E1D16D8B475
:101B200006D0EFD7D8901C321B321A32212A21500E
:101B30002218D8A4F7D720AE0CD0FF0E171AFF0E2C
:101B4000181AFF0E191A010E1726000E1822000E81
:101B5000192220AC0CD0FF0E1A1AFF0E1B1AFF0E12
:101B60001C1A010E1A26000E1B22000E1C22000E4B
:101B7000206E17501A2618501B2219501C221CAE1A
:101B80000ED0FF0E1A1AFF0E1B1AFF0E1C1A010EA2
:101B90001A26000E1B22000E1C22010E206E1AC0F7
:101BA0000FF01BC010F01CC011F022C012F020C0BA
:101BB00013F040EC13F00FC017F010C018F011C074
:101BC00019F01200000E4D6E000E4C6E000E4B6EA2
:101BD000000E4A6E000E4F6E000E4E6E000E00019B
:101BE000C36F050EC26F000E0001C16F000EC06F03
:101BF000000E0001C56F000EC46F000E0001BB6F28
:101C0000010EBA6F000E0001BD6F010EBC6F000E19
:101C10000001BF6F130EBE6FD58EF28AF294D59C71
:101C2000D596D580D592D584D59A090ED76EE70E74
:101C3000D66ED58EF28EF28C900EAB6E200EAC6E00
:101C4000949C948E9E9A9F9A9D8AF28CB4EC16F086
:101C5000F6EC16F092929294000E936E9580958217
:101C6000958495864A0E136E000E146EC00E156E86
:101C7000000E166EBA0E176E000E186E41EC04F0D0
:101C8000E9EC13F04904D8A43BD04A0E0F6E000EC5
:101C9000106EBA0E116E000E126E65EC0BF00C0E8B
:101CA00035EC16F04A0E0001756F000E0001766FDC
:101CB000C00E0001776F000E0001786FBA0E0001B0
:101CC000796F000E00017A6FDDEC07F00F0E35EC36
:101CD00016F0F8EC0FF08084020E0001A66FC70E1C
:101CE0000001A56F880EE82EFED7A52FFCD7A62FE2
:101CF000FAD700F080944804D8A402D0424A432A7C
:101D00000001C2514C1819E10001C3514D18D8A46B
:101D100014D00001C0514A1810E10001C1514B1804
:101D2000D8A40BD00001C4514E1807E10001C551E1
:101D30004F18D8A402D0010E486E4804D8A408D089
:101D400043BE05D0435004E10A0E425CD8A0808215
:101D50000A0E42184310D8A485D7000E436E000E19
:101D6000426E000E486E7ED71F0E2C6E000E2D6E3A
:101D70008CD0250E3218D8B409D01BC0D9FF1CC096
:101D8000DAFF32C0DFFF1B4A1C2A7FD0000E2E6E06
:101D90001DC0F6FF1EC0F7FF1D4A1E2A0800F5CF22
:101DA00032F03250000AD8B47CD0640AD8B403D0E0
:101DB0000D0AD8A46AD02CC0D9FF2DC0DAFFDECF1F
:101DC00030F0DDCF31F0020E2C26000E2D2231AE88
:101DD00006D0030E2E12306C311ED8B0312A010EFF
:101DE000326E050E3218D8B412D03250020D010EE8
:101DF000F324F66E080EF420F76E0900F550305CFF
:101E00000900F5503158D8A002D0322AEAD72EC0A6
:101E10002BF0030E2B16D8B408D01BC0D9FF1CC062
:101E2000DAFF2D0EDF6E1B4A1C2A32C02FF029D09C
:101E30002F50020D010EF324F66E080EF420F76EFB
:101E40000900F5CF11F00A00F5CF12F030C00FF005
:101E500031C010F0C8EC15F00FC016F010C017F02C
:101E6000000E196E0A0E186E14EC16F01650300F94
:101E7000326E1BC0D9FF1CC0DAFF32C0DFFF1B4A25
:101E80001C2A2F062F28D8A4D3D71DC0F6FF1EC0AA
:101E9000F7FF1D4A1E2A0800F5CF32F03250D8A4B1
:101EA00068D71BC0D9FF1CC0DAFF000EDF6E12001E
:101EB00020EE02F00F50D9261050DA22010EDBBEC0
:101EC00018D0010EDB5004E13C0EDE5CD8A011D02E
:101ED0000FC0D9FF10C0DAFFDE2A000EDD2220EE8F
:101EE00002F00F50D9261050DA22000EDE6E000EDE
:101EF000DD6E20EE02F00F50D9261050DA22010ECE
:101F0000DBAE11D020EE02F00F50D9261050DA22AD
:101F10003B0EDE6E000EDD6E0FC0D9FF10C0DAFF83
:101F2000DE06000EDD5A0FC0D9FF10C0DAFF010E29
:101F3000DBBE18D0010EDB5004E13C0EDE5CD8A005
:101F400011D020EE04F00F50D9261050DA22DE2AEC
:101F5000000EDD220FC0D9FF10C0DAFF000EDE6ECA
:101F6000000EDD6E0FC0D9FF10C0DAFF010EDBAE30
:101F700011D00FC0D9FF10C0DAFF3B0EDE6E000E8D
:101F8000DD6E20EE04F00F50D9261050DA22DE0666
:101F9000000EDD5A20EE04F00F50D9261050DA2240
:101FA000010EDBBE11D0010EDB5004E1180EDE5C29
:101FB000D8A00AD020EE04F00F50D9261050DA2213
:101FC000000EDE6E000EDD6E20EE04F00F50D926FE
:101FD0001050DA22010EDBAE120020EE04F00F509A
:101FE000D9261050DA22170EDE6E000EDD6E1200BA
:101FF0000001AE510001AF11D8A45ED0445045108D
:10200000D8A403D0060E9FEC15F044044510D8A4C4
:1020100003D0070E9FEC15F0020E44184510D8A40B
:1020200003D0090E9FEC15F0030E44184510D8A4F8
:1020300003D00A0E9FEC15F0040E44184510D8A4E6
:1020400003D00C0E9FEC15F0050E44184510D8A4D3
:1020500003D00D0E9FEC15F0060E44184510D8A4C1
:1020600003D0460E9FEC15F0070E44184510D8A477
:1020700003D0470E9FEC15F0080E44184510D8A465
:1020800003D0490E9FEC15F0090E44184510D8A452
:1020900003D04A0E9FEC15F00A0E44184510D8A440
:1020A00003D04C0E9FEC15F00B0E44184510D8A42D
:1020B00003D04D0E9FEC15F00001AE050001AF11ED
:1020C000D8A4120044504510D8A403D0400E9FEC71
:1020D00015F044044510D8A403D0410E9FEC15F030
:1020E000020E44184510D8A403D0430E9FEC15F0FF
:1020F000030E44184510D8A403D0440E9FEC15F0ED
:10210000040E44184510D8A403D0460E9FEC15F0D9
:10211000050E44184510D8A41200470E9FEC15F088
:1021200012002BC02DF02E6A2F6A2A342D3601E3BF
:102130002E802D50376E3750D8A409D0000E296E4E
:10214000000E2A6E000E2B6E000E2C6E1200170E63
:102150002D6E29C02EF02AC02FF02BC030F02D2874
:10216000316E04D0D89030322F322E32312EFAD741
:102170002E50326E2A8EFF0E2916FF0E2A16000EE2
:102180002B162950336E2A50346E2B50356E366A1A
:102190008E0E375E37AE16D03750800A8F0FD8B00C
:1021A00009D0000E296E000E2A6E000E2B6E000E56
:1021B0002C6E1200D8903632353234323332373EFC
:1021C000F9D715D0170E37640FD0000E296E000E08
:1021D0002A6E000E2B6E000E2C6E1200D890333635
:1021E00034363536363637063750D8A4F7D732501E
:1021F000D8B408D0361E351E341E336C000E34227F
:102200003522362233C029F034C02AF035C02BF0F5
:1022100036C02CF012001CC020F0216A226A1B3448
:10222000203601E321802050236E2350D8A407D00C
:10223000000E1A6E000E1B6E000E1C6E12001FC0E8
:1022400020F0216A226A1E34203601E321802050CA
:10225000286E2850D8A407D0000E1A6E000E1B6EF0
:10226000000E1C6E120028507B0F23261CC028F085
:102270001F50281A800E28161B8E1E8EFF0E1D164C
:10228000FF0E1E16000E1F16000E246E000E256E89
:10229000000E266E070E276E1AA006D01D502426AB
:1022A0001E5025221F502622D8901C321B321A3273
:1022B000D8901D361E361F36272EEED7090E276EF4
:1022C0001AA006D01D5024261E5025221F5026225B
:1022D000D8901C321B321A32D89026322532243242
:1022E000272EEED724C00FF025C010F026C011F025
:1022F00023C012F028C013F040EC13F00FC01AF006
:1023000010C01BF011C01CF0120060C00FF061C0C3
:1023100010F062C011F0660E126E000E136EC1EC6A
:1023200014F0000167AF17D0000162AF0AD0000EB1
:102330000001606F800E0001616FBF0E0001626FCF
:102340001200000E0001606F000E0001616F000EB0
:102350000001626F12000001675105E1150E0001D6
:10236000665DD8A007D060C060F061C061F062C057
:1023700062F0120060C029F061C02AF062C02BF048
:1023800091EC10F029C038F02AC039F02BC03AF097
:102390002CC03BF0FDEC14F038C063F039C064F0A1
:1023A0003AC065F060C00FF061C010F062C011F07B
:1023B00063C012F064C013F065C014F037EC14F081
:1023C000D8B015D063C017F064C018F065C019F01C
:1023D000000E1A6E800E1B6EBF0E1C6E0CEC0DF004
:1023E00017C060F018C061F019C062F0120063C03D
:1023F00060F064C061F065C062F0120068C01AF05D
:1024000069C01BF06AC01CF0000E1D6EC80E1E6E67
:10241000420E1F6E0BEC11F01AC068F01BC069F081
:102420001CC06AF068C060F069C061F06AC062F008
:1024300085EC11F060C072F061C073F062C074F09E
:1024400072C00FF073C010F074C011F090EC16F071
:102450000FC017F010C018F011C019F068C01AF0C2
:1024600069C01BF06AC01CF00CEC0DF017C06BF0DB
:1024700018C06CF019C06DF072C029F073C02AF05A
:1024800074C02BF091EC10F029C06EF02AC06FF0F0
:10249000000E1D6EC80E1E6E420E1F6E6BC01AF02F
:1024A0006CC01BF06DC01CF00BEC11F01AC029F0D1
:1024B0001BC02AF01CC02BF091EC10F029C070F06A
:1024C0002AC071F0B00E1B6E000E1C6E700E1D6ED9
:1024D000080E1E6E6EC01FF06FC020F070C021F09D
:1024E00071C022F0B4EC0EF012002BC02FF0306A55
:1024F000316A2A342F3601E330802F50366E365041
:10250000D8A407D0000E296E000E2A6E000E2B6E86
:1025100012002EC02FF0306A316A2D342F3601E3BD
:1025200030802F50376E3750D8A407D0000E296E58
:10253000000E2A6E000E2B6E1200000E336E000E7F
:10254000346E000E356E3750890F365E2BC037F073
:102550002E50371A800E37162A8EFF0E2916FF0EC0
:102560002A16000E2B162D8EFF0E2C16FF0E2D1682
:10257000000E2E16180E326ED8903336343635369D
:102580002C50295C2D502A582E502B58D8A007D0FB
:102590002C50295E2D502A5A2E502B5A3380D89019
:1025A00029362A362B36322EE7D733C00FF034C007
:1025B00010F035C011F036C012F037C013F040EC07
:1025C00013F00FC029F010C02AF011C02BF0120038
:1025D0000600FACF01F0FBCF02F0E9CF03F0EACF1B
:1025E00004F0E1CF05F0E2CF06F0D9CF07F0DACF63
:1025F00008F0F3CF09F0F4CF0AF0F6CF0BF0F7CFE5
:102600000CF0F8CF0DF0F5CF0EF0F2A40AD0090EC1
:10261000D76EE70ED66EF2940001AC4BAD2B000ED8
:10262000496E0001ADBF0ED00001AD5104E10001C3
:10263000AC05D8A007D0010E496E000E0001AD6FA9
:10264000000EAC6F0EC0F5FF0DC0F8FF0CC0F7FF19
:102650000BC0F6FF0AC0F4FF09C0F3FF08C0DAFFA1
:1026600007C0D9FF06C0E2FF05C0E1FF04C0EAFFD2
:1026700003C0E9FF02C0FBFF01C0FAFF5092110046
:102680001250D8B405D00F5010101110D8A40CD08F
:10269000000E0F6E000E106E000E116E1200122A48
:1026A000D890113210320F32000E0F14146E000E3B
:1026B0001014156EFE0E1114166E1450151016100F
:1026C000D8B40CD0ECD7122A010E0F26000E10221F
:1026D000000E1122D890113210320F32000E0F145A
:1026E000146E000E1014156EFF0E1114166E145099
:1026F00015101610D8B406D0E6D71206D8900F36AB
:102700001036113610BE03D0020E1260F6D712A09A
:10271000109ED8901232125011121350D8A4118E5C
:102720000FC00FF010C010F011C011F01200146EA5
:10273000F00E8116F00E9316939C939A93988A9CB0
:102740008A9A8A980AEC17F0300E35EC16F0050ECE
:10275000D0EC16F0300E35EC16F0010ED0EC16F081
:10276000320E35EC16F073EC16F00009D8A4FBD746
:1027700073EC16F00009D8A4FBD7145035EC16F012
:1027800073EC16F00009D8A4FBD7080E35EC16F050
:1027900073EC16F00009D8A4FBD70F0E35EC16F039
:1027A00073EC16F00009D8A4FBD7010E35EC16F037
:1027B00073EC16F00009D8A4FBD7040E35EC16F024
:1027C00073EC16F00009D8A4FBD7800E9FEC15F02F
:1027D0001200000E476E000E466E000E386E020E9E
:1027E000386401D01200870EDBEC16F012EC17F003
:1027F00004EC17F00009D8A4FBD7FDEC16F00F503D
:10280000462610504722000E1D6EA00E1E6E400E72
:102810001F6E000E126E030E116E46C00FF047C001
:1028200010F0C8EC15F00FC017F010C018F0A2ECB3
:1028300016F017C01AF018C01BF019C01CF00BECF2
:1028400011F01AC029F01BC02AF01CC02BF0C00EDA
:102850002C6E7F0E2D6E440E2E6E75EC12F029C07C
:10286000A7F02AC0A8F02BC0A9F0382AB8D711AE1B
:1028700016D00FC015F010C016F011C017F0151EBD
:10288000161E171E152A000E16221722000E1524DA
:102890000F6E000E1620106E800E1720116E14AEF3
:1028A00016D012C015F013C016F014C017F0151E84
:1028B000161E171E152A000E16221722000E1524AA
:1028C000126E000E1620136E800E1720146E000E6E
:1028D0000F1A000E101A800E111A000E121A000E96
:1028E000131A800E141A12500F5C13501058145003
:1028F0001158D8B002D0D8901200D8801200000E23
:102900001A6E18AE06D0176C181ED8B0182A010E11
:102910001A6E16AE06D0156C161ED8B0162A010E09
:102920001A1A000E1C6E000E1B6E17501810D8B429
:102930001CD0010E196E04D0D89017361836192AFB
:1029400018AEFAD7D8901B361C361750155C1850A5
:102950001658D8A005D01750155E1850165A1B806F
:10296000D89018321732192EEDD71A50D8B404D097
:102970001B6C1C1ED8B01C2A1BC015F01CC016F006
:1029800012000F5010101110D8A409D012C0D9FF96
:1029900013C0DAFF000EDE6E000EDD6E1200115065
:1029A0007F0B146E156AD8901436153612C0D9FFF5
:1029B00013C0DAFF14C0DEFF15C0DDFF10AE03D078
:1029C000146A142A01D0146A145012C0D9FF13C01B
:1029D000DAFFDE12000EDD1212C0D9FF13C0DAFFDB
:1029E000820EDE26FF0EDD221180118211841186F7
:1029F0001188118A119C109E1200000E416E8E0EDD
:102A0000406E3BAE11D03B1E3A1E391E386C000E94
:102A100039223A223B22010E416E06D0D8903B3239
:102A20003A3239323832402A000E38143C6E000EE9
:102A300039143D6E000E3A143E6EFF0E3B143F6E8D
:102A40003C503D103E103F10D8A4E8D738C00FF0DE
:102A500039C010F03AC011F040C012F041C013F07C
:102A600040EC13F00FC038F010C039F011C03AF04C
:102A70001200000E146E10AE06D00F6C101ED8B0EF
:102A8000102A010E146E12AE04D0116C121ED8B0B2
:102A9000122A11501210D8B418D0010E136E04D09F
:102AA000D89011361236132A12AEFAD711500F5C95
:102AB00012501058D8A004D011500F5E1250105A66
:102AC000D89012321132132EF1D71450D8B404D04A
:102AD0000F6C101ED8B0102A0FC00FF010C010F0ED
:102AE000120019D073EC16F00009D8A4FBD711C05E
:102AF000F6FF12C0F7FFF86A070EF76403D008006C
:102B0000F55005D0F6CFE1FFF7CFE2FFE75054ECE8
:102B100016F0114A122A11C0F6FF12C0F7FFF86A28
:102B2000070EF76403D00800F55005D0F6CFE1FF9B
:102B3000F7CFE2FFE7500009D8B41200D3D7136EE5
:102B4000F00E9316F00E81161350106E116A108E4F
:102B5000040E126E113411321032122EFBD71050A7
:102B60000F0B81128A9C8A9A0EEC17F08A880EEC61
:102B700017F08A98F00E811613500F0B81120EEC8D
:102B800017F08A880EEC17F08A980F0E9312120035
:102B9000000E146E000E136E11501210D8B41CD01B
:102BA000010E156E04D0D89011361236152A12AEC9
:102BB000FAD7D8901336143611500F5C12501058B3
:102BC000D8A005D011500F5E1250105A1380D89023
:102BD00012321132152EEDD713C00FF014C010F0C1
:102BE0001200860EF66E2D0EF76E000EF86E00EED9
:102BF000C6F010EE1AF00900F5CFEEFFE550E150F7
:102C0000FAE100EEA7F01F0EEE6AE806FDE100EE25
:102C100042F00E0EEE6AE806FDE150905092000E72
:102C2000F86E0001E2EF0DF018501910D8B418D06A
:102C3000010E1A6E04D0D890183619361A2A19AE19
:102C4000FAD71850165C19501758D8A004D018504D
:102C5000165E1950175AD890193218321A2EF1D719
:102C600016C016F017C017F01200106EF00E931673
:102C7000F00E811610380F0B0F0B81128A9C8A9A66
:102C80000EEC17F08A880EEC17F08A98F00E811679
:102C900010500F0B81120EEC17F08A880EEC17F013
:102CA0008A980F0E93121200106EF00E9316F00E0B
:102CB000811610380F0B0F0B81128A8A8A9C0EEC3A
:102CC00017F08A880EEC17F08A98F00E81161050D3
:102CD0000F0B81120EEC17F08A880EEC17F08A9811
:102CE0000F0E931212008A8C8A9A0EEC17F08A88C3
:102CF0000EEC17F081A60AD08A980EEC17F08A889D
:102D00000EEC17F08A988A9C010E12008A980EEC3D
:102D100017F08A880EEC17F08A988A9C000E120031
:102D20000F5010101110D8B406D0000E0F1A000E5C
:102D3000101A800E111A0FC00FF010C010F011C041
:102D400011F0120017C00FF018C010F0116A8E0EAB
:102D5000126E000E136E40EC13F00FC017F010C08F
:102D600018F011C019F01200280E97EC13F073EC54
:102D700016F00009D8A4FBD7060E35EC16F00C0EA1
:102D800035EC16F0120000001F001C001F001E0092
:102D90001F001E001F001F001E001F001E001F003E
:102DA000106E0D0E0F6EFC0EE82EFED70F2EFCD708
:102DB000102EF7D71200106EC2CF0FF0C30E0F16F1
:102DC000D89010303C0B0F10C26E12000F6EC80E60
:102DD00000D0E82EFDD70F2EFAD712000F6E030E8B
:102DE000E82EFED700F00F2EFAD71200AE0EC06EFE
:102DF000030EC26E0D0EC16E1200C450116EC35090
:102E00000F6E11C010F01200C2A202D0010E12000B
:102E1000000E1200B40EE6EC16F01200780EEEEC86
:082E200016F01200C28212003C
:020000040020DA
:08000000FFFFFFFFFFFFFFFF00
:020000040030CA
:0E00000000051F1EFF8185FF0FC00FE00F409F
:00000001FF
