:0400000007EF00F016
:0A00080051828DED0BF0C6EF0FF0F2
:100800000001000A006400E80310274D494E3A2019
:1008100025642564204D41583A202564256400252F
:1008200064202564202564202020202020202020F2
:10083000202000484F52413A2025642020202020CB
:1008400020202020200053455249414C3A202020AE
:100850002020202020200025642C2564206F4320A8
:100860000054454D503A20257300286E756C6C2954
:1008700000000001705100017111D8A4BED063C006
:100880009DF064C09EF065C09FF016EC0BF0720EF8
:100890001B6E000E1C6E610E1D6E080E1E6E820E0B
:1008A0001F6E000E206E41EC06F0000E4FEC0FF0B4
:1008B000720E116E000E126EF7EC10F04FC015F0B4
:1008C00050C016F0000E186E0A0E176EB9EC0DF03F
:1008D00015C0AAF016C0ABF0000E126E0A0E116E13
:1008E0004FC00FF050C010F0EBEC0EF00FC015F041
:1008F00010C016F0000E186E0A0E176EB9EC0DF04F
:10090000151E161E154A162A15500001AA250001AB
:10091000AC6F16500001AB210001AD6F4FC00FF05E
:1009200050C010F0000E126E0A0E116EEBEC0EF0BD
:100930000FC0AEF010C0AFF04DC015F04EC016F0B5
:10094000000E186E0A0E176EB9EC0DF015C0AAF065
:1009500016C0ABF0000E126E0A0E116E4DC00FF0F5
:100960004EC010F0EBEC0EF00FC015F010C016F0FA
:10097000000E186E0A0E176EB9EC0DF0151E161E3D
:10098000154A162A15500001AA250001B06F16500D
:100990000001AB210001B16F4DC00FF04EC010F04F
:1009A000000E126E0A0E116EEBEC0EF00FC0B2F0DC
:1009B00010C0B3F0720E1B6E000E1C6E0B0E1D6E7F
:1009C000080E1E6EACC01FF0ADC020F0AEC021F00E
:1009D000AFC022F0B0C023F0B1C024F0B2C025F007
:1009E000B3C026F041EC06F0400E4FEC0FF0720E53
:1009F000116E000E126EF7EC10F000017005000190
:100A00007111D8B4B5EC11F0020E0001701900019B
:100A10007111D8A4120063C09DF064C09EF065C03F
:100A20009FF016EC0BF0720E1B6E000E1C6E610E2A
:100A30001D6E080E1E6E820E1F6E000E206E41ECA3
:100A400006F0000E4FEC0FF0720E116E000E126EDB
:100A5000F7EC10F0720E1B6E000E1C6E330E1D6E46
:100A6000080E1E6E68C01FF069C020F041EC06F051
:100A7000400E4FEC0FF0720E116E000E126EF7EC7E
:100A800010F012003AC03EF03F6A406A39343E36F8
:100A900001E33F803E500001946F3DC03EF03F6A4D
:100AA000406A3C343E3601E33F803E500001936F84
:100AB000000194510001D8B40FD0000193510001FE
:100AC000945DD8B010D00001945100080001932526
:100AD0003E6E180E3E6407D03BC038F03CC039F083
:100AE0003DC03AF01200000193510001D8B40FD07C
:100AF000000194510001935DD8B010D000019351D2
:100B00000008000194253E6E180E3E6407D038C0E0
:100B100038F039C039F03AC03AF01200060E000140
:100B2000926F3AAE02D00001928F3DAE02D000012A
:100B3000928D398EFF0E3816FF0E3916000E3A16BA
:100B40003C8EFF0E3B16FF0E3C16000E3D160001BC
:100B500093510001945DD8B022D0D8903B363C36FA
:100B60003D36000193070001945100019319D8B458
:100B70000FD00001920792C03EF0070E3E16D8B487
:100B800007D0EBD7D8903A32393238320001942B63
:100B90000001935100019419D8B428D0F3D7000173
:100BA00094510001935DD8B021D0D89038363936B1
:100BB0003A36000194070001945100019319D8B40A
:100BC0000FD00001920792C03EF0070E3E16D8B437
:100BD00007D0EBD7D8903D323C323B320001932B0B
:100BE0000001935100019419D8A4F4D7000192AFE9
:100BF0000CD0FF0E381AFF0E391AFF0E3A1A010EEA
:100C00003826000E3922000E3A22000192AD0CD097
:100C1000FF0E3B1AFF0E3C1AFF0E3D1A010E3B263B
:100C2000000E3C22000E3D22000E0001926F385053
:100C30003B2639503C223A503D223DAE0FD0FF0EAC
:100C40003B1AFF0E3C1AFF0E3D1A010E3B26000E0A
:100C50003C22000E3D22010E0001926F3BC00FF0BE
:100C60003CC010F03DC011F094C012F092C013F0DF
:100C700077EC0CF00FC038F010C039F011C03AF02A
:100C800012001F0E2A6E000E2B6ED3D0250E3018C8
:100C9000D8B409D01BC0D9FF1CC0DAFF30C0DFFFB9
:100CA0001B4A1C2AC6D0000E286E42D02AC0D9FF8B
:100CB0002BC0DAFFDECF2CF0DDCF2DF0020E2A267E
:100CC000000E2B222C502D10D8A41ED06A0E2C6E94
:100CD000080E2D6E19D02CC0F6FF2DC0F7FFF86A54
:100CE0001BC0D9FF1CC0DAFF070EF76403D0080051
:100CF000F55005D0F6CFE9FFF7CFEAFFEF50DF6EF2
:100D00002C4A2D2A1B4A1C2A2CC0F6FF2DC0F7FFA7
:100D1000F86A070EF76403D00800F55005D0F6CF47
:100D2000E9FFF7CFEAFFEF500009D8B482D0D3D75C
:100D30001DC0F6FF1EC0F7FF1D4A1E2A0800F5CF92
:100D400030F03050000AD8B480D0640AD8B407D04C
:100D50000D0AD8B404D01A0AD8B4A8D76AD02AC0C9
:100D6000D9FF2BC0DAFFDECF2EF0DDCF2FF0020E41
:100D70002A26000E2B222FAE06D0030E28122E6C30
:100D80002F1ED8B02F2A010E306E050E3018D8B4A1
:100D900012D03050020D010EF324F66E080EF4202E
:100DA000F76E0900F5502E5C0900F5502F58D8A0B9
:100DB00002D0302AEAD728C027F0030E2716D8B46D
:100DC00008D01BC0D9FF1CC0DAFF2D0EDF6E1B4AF6
:100DD0001C2A30C029F029D02950020D010EF3241D
:100DE000F66E080EF420F76E0900F5CF11F00A0038
:100DF000F5CF12F02EC00FF02FC010F078EC0FF0EE
:100E00000FC016F010C017F0000E196E0A0E186E03
:100E10000BEC10F01650300F306E1BC0D9FF1CC009
:100E2000DAFF30C0DFFF1B4A1C2A29062928D8A474
:100E3000D3D71DC0F6FF1EC0F7FF1D4A1E2A0800AB
:100E4000F5CF30F03050D8A421D71BC0D9FF1CC03B
:100E5000DAFF000EDF6E120083A014D0050E106EB4
:100E6000910E0F6ED00EE82EFED70F2EFCD7102E4F
:100E7000FAD70001704B712B000E496E000E486EC0
:100E800083B0FED7000171BF0DD00001715105E1A3
:100E9000030E0001705DD8A005D0000E0001716F37
:100EA000000E706F83A235D0050E106E910E0F6E7E
:100EB000D00EE82EFED70F2EFCD7102EFAD7000149
:100EC000705100017111D8A422D048504910D8A403
:100ED00006D00A0E4F244F6E000E5020506E48046C
:100EE0004910D8A402D04F4A502A020E481849107F
:100EF000D8A406D00A0E4D244D6E000E4E204E6E24
:100F0000030E48184910D8A402D04D4A4E2A83B285
:100F1000FED783A437D0050E106E910E0F6ED00E43
:100F2000E82EFED70F2EFCD7102EFAD700017051F5
:100F300000017111D8A424D048504910D8A406D07B
:100F4000F60E4F244F6EFF0E5020506E480449108D
:100F5000D8A403D04F06D8A05006020E4818491056
:100F6000D8A406D0F60E4D244D6EFF0E4E204E6EC8
:100F7000030E48184910D8A403D04D06D8A04E0639
:100F800083B4FED783A61200050E106E910E0F6E6D
:100F9000D00EE82EFED70F2EFCD7102EFAD7484AD7
:100FA000492A49BE10D0495004E1040E485CD8A03B
:100FB0000AD00001705100017111D8A404D0000EB4
:100FC000496E000E486E83A61200FDD720EE02F097
:100FD0000F50D9261050DA22DE2A000EDD2220EE34
:100FE00002F00F50D9261050DA22010EDBBE18D0C5
:100FF000010EDB5004E13C0EDE5CD8A011D00FC026
:10100000D9FF10C0DAFFDE2A000EDD2220EE02F04A
:101010000F50D9261050DA22000EDE6E000EDD6E63
:1010200020EE02F00F50D9261050DA22010EDBAE6E
:1010300011D020EE02F00F50D9261050DA223B0ECC
:10104000DE6E000EDD6E0FC0D9FF10C0DAFFDE06C7
:10105000000EDD5A0FC0D9FF10C0DAFF010EDBBE53
:1010600018D0010EDB5004E13C0EDE5CD8A011D09C
:1010700020EE04F00F50D9261050DA22DE2A000E9E
:10108000DD220FC0D9FF10C0DAFF000EDE6E000EA9
:10109000DD6E0FC0D9FF10C0DAFF010EDBAE11D03C
:1010A0000FC0D9FF10C0DAFF3B0EDE6E000EDD6E02
:1010B00020EE04F00F50D9261050DA22DE06000E82
:1010C000DD5A20EE04F00F50D9261050DA22010E1E
:1010D000DBBE11D0010EDB5004E1180EDE5CD8A09F
:1010E0000AD020EE04F00F50D9261050DA22000E5C
:1010F000DE6E000EDD6E20EE04F00F50D92610508B
:10110000DA22010EDBAE120020EE04F00F50D926D9
:101110001050DA22170EDE6E000EDD6E120043C094
:1011200060F044C061F045C062F08ED0D00E432420
:101130000F6E106AFF0E1022000E126E0A0E116E54
:101140000EEC11F00FC015F010C016F04FC00FF0EC
:1011500050C010F0000E126E0A0E116EEBEC0EF085
:101160000F5015244F6E10501DD04FC00FF050C0BF
:1011700010F0000E126E0A0E116EEBEC0EF00F1E48
:10118000101E0F4A102A4350156E166A0F5015266E
:10119000105016224F50152650501622D00E1524EE
:1011A0004F6EFF0E1620506E56D04550310AD8B4FF
:1011B000BDD7030AD8B4D9D74ED0D00E43240F6E72
:1011C000106AFF0E1022000E126E0A0E116E0EEC47
:1011D00011F00FC015F010C016F04DC00FF04EC04A
:1011E00010F0000E126E0A0E116EEBEC0EF00F50A6
:1011F00015244D6E10501DD04DC00FF04EC010F094
:10120000000E126E0A0E116EEBEC0EF00F1E101E89
:101210000F4A102A4350156E166A0F5015261050AB
:1012200016224D5015264E501622D00E15244D6E06
:10123000FF0E16204E6E0FD04550310AD8B4BDD7E0
:10124000030AD8B4D9D707D04450310AD8B4ADD79F
:10125000030AD8B4F1D7000E00016B6F320E6A6F2B
:1012600012001CC020F0216A226A1B34203601E3E0
:1012700021802050236E2350D8A407D0000E1A6E70
:10128000000E1B6E000E1C6E12001FC020F0216AA3
:10129000226A1E34203601E321802050286E285017
:1012A000D8A407D0000E1A6E000E1B6E000E1C6E26
:1012B000120028507B0F23261CC028F01F50281A2C
:1012C000800E28161B8E1E8EFF0E1D16FF0E1E167C
:1012D000000E1F16000E246E000E256E000E266EE8
:1012E000070E276E1AA006D01D5024261E50252258
:1012F0001F502622D8901C321B321A32D8901D362D
:101300001E361F36272EEED7090E276E1AA006D0DE
:101310001D5024261E5025221F502622D8901C32F4
:101320001B321A32D890263225322432272EEED79D
:1013300024C00FF025C010F026C011F023C012F019
:1013400028C013F077EC0CF00FC01AF010C01BF09F
:1013500011C01CF012002BC02DF02E6A2F6A2A3407
:101360002D3601E32E802D50376E3750D8A409D08A
:10137000000E296E000E2A6E000E2B6E000E2C6ED3
:101380001200170E2D6E29C02EF02AC02FF02BC090
:1013900030F02D28316E04D0D89030322F322E32DA
:1013A000312EFAD72E50326E2A8EFF0E2916FF0EDE
:1013B0002A16000E2B162950336E2A50346E2B50ED
:1013C000356E366A8E0E375E37AE16D03750800ACD
:1013D0008F0FD8B009D0000E296E000E2A6E000EB5
:1013E0002B6E000E2C6E1200D8903632353234320D
:1013F0003332373EF9D715D0170E37640FD0000EB1
:10140000296E000E2A6E000E2B6E000E2C6E12003E
:10141000D890333634363536363637063750D8A47A
:10142000F7D73250D8B408D0361E351E341E336C70
:10143000000E34223522362233C029F034C02AF07F
:1014400035C02BF036C02CF0120095C00FF096C0BE
:1014500010F097C011F09B0E126E000E136E3AEC56
:101460000EF000019CAF17D0000197AF0AD0000E1C
:101470000001956F800E0001966FBF0E0001976FFF
:101480001200000E0001956F000E0001966F000E15
:101490000001976F120000019C5105E1150E00013B
:1014A0009B5DD8A007D095C095F096C096F097C0E8
:1014B00097F0120095C029F096C02AF097C02BF043
:1014C000ABEC09F029C038F02AC039F02BC03AF053
:1014D0002CC03BF076EC0EF038C098F039C099F093
:1014E0003AC09AF095C029F096C02AF097C02BF028
:1014F00098C02CF099C02DF09AC02EF071EC0DF030
:10150000D8B015D098C038F099C039F09AC03AF0E8
:10151000000E3B6E800E3C6EBF0E3D6E42EC05F041
:1015200038C095F039C096F03AC097F0120098C0D4
:1015300095F099C096F09AC097F01200000E000145
:101540008F6F000E8E6F000E00018D6F000E8C6F7E
:10155000000E0001916F000E906FD58EF28AF2940A
:10156000D59CD596D580D592D584D59A090ED76EBF
:10157000E70ED66ED58EF28EF28C0F0EC16E928271
:10158000010E926E80921F0EAF6E900EAB6E200E0B
:10159000AC6E949C948E9E9A9F9A9D8AF28C57EC86
:1015A00011F093EC11F0250E426E800E416EB2ECFC
:1015B0000EF092949598959A959C000E936E958056
:1015C000958295849586720ED36E2CEC07F020ECF4
:1015D0000DF023EC0FF02CEC10F00C0E6AEC10F078
:1015E00039EC04F00F0E6AEC10F0A1EC0FF04C0493
:1015F000D8A419D08C0E0F6E000E106EE6EC07F01A
:101600008084020E0001B56FC70E0001B46F880E12
:10161000E82EFED7B42FFCD7B52FFAD700F0809470
:101620000001684B692BE9EC0FF0CFD79DC01AF091
:101630009EC01BF09FC01CF0000E1D6EC80E1E6EDB
:10164000420E1F6E31EC09F01AC09DF01BC09EF0D7
:101650001CC09FF09DC095F09EC096F09FC097F073
:1016600025EC0AF095C0A7F096C0A8F097C0A9F0A5
:10167000A7C00FF0A8C010F0A9C011F033EC11F012
:101680000FC038F010C039F011C03AF09DC03BF0E7
:101690009EC03CF09FC03DF042EC05F038C0A4F085
:1016A00039C0A5F03AC0A6F0A7C029F0A8C02AF01A
:1016B000A9C02BF0ABEC09F029C0A0F02AC0A1F022
:1016C000000E1D6EC80E1E6E420E1F6EA4C01AF0D4
:1016D000A5C01BF0A6C01CF031EC09F01AC029F01F
:1016E0001BC02AF01CC02BF0ABEC09F029C0A2F003
:1016F0002AC0A3F0820E1B6E000E1C6E570E1D6ECC
:10170000080E1E6EA0C01FF0A1C020F0A2C021F0E4
:10171000A3C022F041EC06F012000600FACF01F05F
:10172000FBCF02F0E9CF03F0EACF04F0E1CF05F000
:10173000E2CF06F0D9CF07F0DACF08F0F3CF09F007
:10174000F4CF0AF0F6CF0BF0F7CF0CF0F8CF0DF096
:10175000F5CF0EF0F2A40AD0090ED76EE70ED66EC2
:10176000F29400016E4B6F2B000E4C6E00016FBFA8
:101770000ED000016F5104E100016E05D8A007D022
:10178000010E4C6E000E00016F6F000E6E6F9EAA70
:101790001DD0475011E1030E465CD8B00DD09EAA73
:1017A000FED7430E4624D96E000E4720DA6EAECF28
:1017B000DFFF464A472A0AD09E9A000E476E000E67
:1017C000466E000E00016B6F310E6A6F0EC0F5FFA2
:1017D0000DC0F8FF0CC0F7FF0BC0F6FF0AC0F4FF06
:1017E00009C0F3FF08C0DAFF07C0D9FF06C0E2FF57
:1017F00005C0E1FF04C0EAFF03C0E9FF02C0FBFF30
:1018000001C0FAFF519211002BC02FF0306A316AEB
:101810002A342F3601E330802F50366E3650D8A44C
:1018200007D0000E296E000E2A6E000E2B6E1200DD
:101830002EC02FF0306A316A2D342F3601E330800C
:101840002F50376E3750D8A407D0000E296E000EE7
:101850002A6E000E2B6E1200000E336E000E346ED8
:10186000000E356E3750890F365E2BC037F02E5084
:10187000371A800E37162A8EFF0E2916FF0E2A16EB
:10188000000E2B162D8EFF0E2C16FF0E2D16000EA1
:101890002E16180E326ED8903336343635362C501C
:1018A000295C2D502A582E502B58D8A007D02C50E8
:1018B000295E2D502A5A2E502B5A3380D890293623
:1018C0002A362B36322EE7D733C00FF034C010F053
:1018D00035C011F036C012F037C013F077EC0CF0C1
:1018E0000FC029F010C02AF011C02BF012001250C6
:1018F000D8B405D00F5010101110D8A40CD0000E81
:101900000F6E000E106E000E116E1200122AD8908B
:10191000113210320F32000E0F14146E000E10141C
:10192000156EFE0E1114166E145015101610D8B444
:101930000CD0ECD7122A010E0F26000E1022000E3A
:101940001122D890113210320F32000E0F14146E83
:10195000000E1014156EFF0E1114166E1450151093
:101960001610D8B406D0E6D71206D8900F36103627
:10197000113610BE03D0020E1260F6D712A0109ED0
:10198000D8901232125011121350D8A4118E0FC0D9
:101990000FF010C010F011C011F01200146EF00E14
:1019A0008116F00E9316939C939A93988A9C8A9A28
:1019B0008A98ADEC11F0300E6AEC10F0050E66EC72
:1019C00011F0300E6AEC10F0010E66EC11F0320EE0
:1019D0006AEC10F089EC10F00009D8A4FBD789EC70
:1019E00010F00009D8A4FBD714506AEC10F089EC71
:1019F00010F00009D8A4FBD7080E6AEC10F089ECAF
:101A000010F00009D8A4FBD70F0E6AEC10F089EC97
:101A100010F00009D8A4FBD7010E6AEC10F089EC95
:101A200010F00009D8A4FBD7040E6AEC10F089EC82
:101A300010F00009D8A4FBD7800E4FEC0FF0120075
:101A4000000E00016D6F000E6C6F000E386E020EFE
:101A5000386401D01200870E71EC11F0BAEC11F06D
:101A6000A7EC11F00009D8A4FBD79AEC11F00F50A5
:101A700000016C27105000016D23000E1D6EA00E9A
:101A80001E6E400E1F6E000E126E030E116E6CC0A5
:101A90000FF06DC010F078EC0FF00FC017F010C011
:101AA00018F045EC11F017C01AF018C01BF019C05F
:101AB0001CF031EC09F01AC029F01BC02AF01CC040
:101AC0002BF0C00E2C6E7F0E2D6E440E2E6E04EC8D
:101AD0000CF029C063F02AC064F02BC065F0382AEE
:101AE000B6D72BAE16D029C02FF02AC030F02BC0AD
:101AF00031F02F1E301E311E2F2A000E30223122CF
:101B0000000E2F24296E000E30202A6E800E312008
:101B10002B6E2EAE16D02CC02FF02DC030F02EC064
:101B200031F02F1E301E311E2F2A000E302231229E
:101B3000000E2F242C6E000E30202D6E800E3120D2
:101B40002E6E000E291A000E2A1A800E2B1A000E75
:101B50002C1A000E2D1A800E2E1A2C50295C2D5096
:101B60002A582E502B58D8B002D0D8901200D880C6
:101B70001200000E1A6E18AE06D0176C181ED8B0E0
:101B8000182A010E1A6E16AE06D0156C161ED8B0A5
:101B9000162A010E1A1A000E1C6E000E1B6E17502C
:101BA0001810D8B41CD0010E196E04D0D890173676
:101BB0001836192A18AEFAD7D8901B361C3617508B
:101BC000155C18501658D8A005D01750155E18503F
:101BD000165A1B80D89018321732192EEDD71A508A
:101BE000D8B404D01B6C1C1ED8B01C2A1BC015F026
:101BF0001CC016F012000C0E6AEC10F0000E4FEC38
:101C00000FF0720E1B6E000E1C6E460E1D6E080E3F
:101C10001E6E41EC06F0720E116E000E126EF7ECA5
:101C200010F0400E4FEC0FF0720E1B6E000E1C6E8B
:101C30001F0E1D6E080E1E6ED00E000161251F6E58
:101C4000206AFF0E2022D00E00016225216E226A3A
:101C5000FF0E2222D00E00016025236E246AFF0EA3
:101C6000242241EC06F0720E116E000E126EF7EC9B
:101C700010F012000F5010101110D8A409D012C08B
:101C8000D9FF13C0DAFF000EDE6E000EDD6E12000B
:101C900011507F0B146E156AD8901436153612C089
:101CA000D9FF13C0DAFF14C0DEFF15C0DDFF10AE90
:101CB00003D0146A142A01D0146A145012C0D9FF38
:101CC00013C0DAFFDE12000EDD1212C0D9FF13C0FE
:101CD000DAFF820EDE26FF0EDD22118011821184D2
:101CE00011861188118A119C109E1200000E416EFF
:101CF0008E0E406E3BAE11D03B1E3A1E391E386C24
:101D0000000E39223A223B22010E416E06D0D890B5
:101D10003B323A3239323832402A000E38143C6EA7
:101D2000000E39143D6E000E3A143E6EFF0E3B1449
:101D30003F6E3C503D103E103F10D8A4E8D738C04D
:101D40000FF039C010F03AC011F040C012F041C09D
:101D500013F077EC0CF00FC038F010C039F011C060
:101D60003AF01200949C948E41C017F042C018F0D3
:101D7000C2EC10F017C02CF018C02DF019C02EF0D6
:101D8000240E296EF40E2A6E470E2B6E04EC0CF016
:101D900029C038F02AC039F02BC03AF0000E3B6E53
:101DA000800E3C6EBF0E3D6E42EC05F038C095F0E3
:101DB00039C096F03AC097F095C029F096C02AF045
:101DC00097C02BF0ABEC09F02950AF6E200EAC6E33
:101DD000900EAB6E1200000E146E10AE06D00F6C9B
:101DE000101ED8B0102A010E146E12AE04D0116C61
:101DF000121ED8B0122A11501210D8B418D0010EE9
:101E0000136E04D0D89011361236132A12AEFAD7B8
:101E100011500F5C12501058D8A004D011500F5E12
:101E20001250105AD89012321132132EF1D714508A
:101E3000D8B404D00F6C101ED8B0102A0FC00FF009
:101E400010C010F012004DC017F04EC018F0C2ECD8
:101E500010F017C029F018C02AF019C02BF0000E9E
:101E60001D6EC80E1E6E420E1F6E63C01AF064C057
:101E70001BF065C01CF031EC09F01AC02CF01BC03F
:101E80002DF01CC02EF071EC0DF0D8B004D083887A
:101E9000838A838C12008398839A839C1200136E2A
:101EA000F00E9316F00E81161350106E116A108EFC
:101EB000040E126E113411321032122EFBD7105054
:101EC0000F0B81128A9C8A9AB1EC11F08A88B1ECCE
:101ED00011F08A98F00E811613500F0B8112B1EC9D
:101EE00011F08A88B1EC11F08A980F0E931212004B
:101EF000000E146E000E136E11501210D8B41CD0C8
:101F0000010E156E04D0D89011361236152A12AE75
:101F1000FAD7D8901336143611500F5C125010585F
:101F2000D8A005D011500F5E1250105A1380D890CF
:101F300012321132152EEDD713C00FF014C010F06D
:101F400012000001705100017111D8A41200485014
:101F50004910D8A403D0450E4FEC0FF048044910A7
:101F6000D8A403D0460E4FEC0FF0020E48184910CB
:101F7000D8A403D04D0E4FEC0FF0030E48184910B3
:101F8000D8A412004E0E4FEC0FF01200700EF66E39
:101F9000230EF76E000EF86E00EE4DF010EE04F01A
:101FA0000900F5CFEEFFE550E150FAE100EE60F0F8
:101FB000320EEE6AE806FDE100EE43F00A0EEE6A2C
:101FC000E806FDE151905192000EF86E00019EEF7F
:101FD0000AF0000E196E000E186E000E136E000E41
:101FE000126E4A50166E176A16C014F017C015F01C
:101FF000DEEC10F00CD018C00FF019C010F08CEC13
:1020000011F01A6E1A50A1EC11F0184A192A1A2868
:10201000D8B41200F0D718501910D8B418D0010E47
:102020001A6E04D0D890183619361A2A19AEFAD773
:102030001850165C19501758D8A004D01850165EC6
:102040001950175AD890193218321A2EF1D716C0D3
:1020500016F017C017F012000BD08FEC08F012002A
:10206000A6EC10F0000E00016B6F300E6A6F1200CC
:102070006AC017F06BC018F01850000AD8A41200FC
:102080001750300AD8B41200010AD8B4E6D7030AB0
:10209000D8A41200E5D7106EF00E9316F00E81163C
:1020A00010380F0B0F0B81128A8A8A9CB1EC11F049
:1020B0008A88B1EC11F08A98F00E811610500F0B3F
:1020C0008112B1EC11F08A88B1EC11F08A980F0EF0
:1020D00093121200106EF00E9316F00E8116103847
:1020E0000F0B0F0B81128A9C8A9AB1EC11F08A882F
:1020F000B1EC11F08A98F00E811610500F0B81127E
:10210000B1EC11F08A88B1EC11F08A980F0E93129D
:1021100012008A8C8A9AB1EC11F08A88B1EC11F025
:1021200081A60AD08A98B1EC11F08A88B1EC11F03E
:102130008A988A9C010E12008A98B1EC11F08A8864
:10214000B1EC11F08A988A9C000E12009EA8FED76E
:10215000000E106E000E0F6E10BE06D0105011E172
:10216000030E0F5CD8B012009EA8FED7600E0F249D
:10217000D96E000E1020DA6EDF50AD6E0F4A102AB5
:10218000EBD71200000E1A6E18AE06D0176C181E90
:10219000D8B0182A010E1A6E17C00FF018C010F030
:1021A000116A8E0E126E1AC013F077EC0CF00FC08D
:1021B00017F010C018F011C019F0120010D012C0A2
:1021C0000FF013C010F014C0D9FF15C0DAFFDF50B4
:1021D000116E21EC11F0124A132A144A152A14C068
:1021E000D9FF15C0DAFFDF50D8B41200E8D70ED0FF
:1021F00089EC10F00009D8A4FBD711C0D9FF12C098
:10220000DAFFDF504BEC10F0114A122A11C0D9FF4F
:1022100012C0DAFFDF50D8B41200EAD70F50110213
:10222000F3CF13F0F4CF14F00F501202F350142632
:1022300010501102F350142613C00FF014C010F008
:1022400012000FC0A9FF11C0A8FFA69EA69CA684DD
:10225000F29E550EA76EAA0EA76EA682F28EA1A8B8
:10226000FED7A19812000F5010101110D8B406D04C
:10227000000E0F1A000E101A800E111A0FC00FF068
:1022800010C010F011C011F0120017C00FF018C0EC
:1022900010F0116A8E0E126E000E136E77EC0CF0B9
:1022A0000FC017F010C018F011C019F01200280E5E
:1022B000CEEC0CF089EC10F00009D8A4FBD7060E88
:1022C0006AEC10F00C0E6AEC10F01200106E0D0E9D
:1022D0000F6EFC0EE82EFED70F2EFCD7102EF7D770
:1022E0001200106EC2CF0FF0C30E0F16D890103030
:1022F0003C0B0F10C26E12000F6EC80E00D0E82EFD
:10230000FDD70F2EFAD712000F6E030EE82EFED760
:1023100000F00F2EFAD712000FC0A9FFA694A69EB8
:10232000A680A8501200AE0EC06E030EC26E0D0E37
:10233000C16E1200C450116EC3500F6E11C010F068
:1023400012000F6E9EA8FED70FC0ADFF1200C2A2F2
:1023500002D0010E1200000E1200B40E7CEC11F03F
:102360001200780E84EC11F01200FBEC0DF012005C
:082370001E001900C2821200D8
:020000040020DA
:08000000FFFFFFFFFFFFFFFF00
:020000040030CA
:0E00000000091F1EFF0381FF0FC00FE00F401D
:00000001FF
