:04000000CCEF06F04B
:0F08000000535452494E475F544553544500002E
:100810001EC022F0236A246A1D34223601E323809D
:100820002250276E21C022F0236A246A2034223607
:1008300001E323802250266E2750D8B40BD02650D7
:10084000275CD8B00ED0275000082624226E180E40
:10085000226407D01FC01CF020C01DF021C01EF074
:1008600012002650D8B40BD02750265CD8B00ED03A
:10087000265000082724226E180E226407D01CC0C0
:100880001CF01DC01DF01EC01EF01200060E256ECD
:100890001EBE258E21BE258C1D8EFF0E1C16FF0E42
:1008A0001D16000E1E16208EFF0E1F16FF0E2016A0
:1008B000000E21162650275CD8B01BD0D8901F36CA
:1008C00020362136260627502618D8B40DD0250606
:1008D00025C022F0070E2216D8B406D0EFD7D89044
:1008E0001E321D321C32272A26502718D8B41FD09A
:1008F000F6D72750265CD8B01AD0D8901C361D36B3
:100900001E36270627502618D8B40DD0250625C038
:1009100022F0070E2216D8B406D0EFD7D890213295
:1009200020321F32262A26502718D8A4F7D725AE02
:100930000CD0FF0E1C1AFF0E1D1AFF0E1E1A010E00
:100940001C26000E1D22000E1E2225AC0CD0FF0E10
:100950001F1AFF0E201AFF0E211A010E1F26000E6D
:100960002022000E2122000E256E1C501F261D5035
:1009700020221E50212221AE0ED0FF0E1F1AFF0E84
:10098000201AFF0E211A010E1F26000E2022000E33
:100990002122010E256E1FC001F020C002F021C0EF
:1009A00003F027C004F025C005F0CBEC05F001C032
:1009B0001CF002C01DF003C01EF0120003C005F0C1
:1009C000066A076A0234053601E3068005500F6E99
:1009D0000F50D8A409D0000E016E000E026E000E5A
:1009E000036E000E046E1200170E056E01C006F0B5
:1009F00002C007F003C008F00528096E04D0D890A3
:100A0000083207320632092EFAD706500A6E028ED5
:100A1000FF0E0116FF0E0216000E031601500B6E9C
:100A200002500C6E03500D6E0E6A8E0E0F5E0FAEEE
:100A300016D00F50800A8F0FD8B009D0000E016E6B
:100A4000000E026E000E036E000E046E1200D890AF
:100A50000E320D320C320B320F3EF9D715D0170E75
:100A60000F640FD0000E016E000E026E000E036EBA
:100A7000000E046E1200D8900B360C360D360E3672
:100A80000F060F50D8A4F7D70A50D8B408D00E1EBE
:100A90000D1E0C1E0B6C000E0C220D220E220BC024
:100AA00001F00CC002F00DC003F00EC004F0120003
:100AB0000FC013F0146A156A0E34133601E3148064
:100AC00013501A6E1A50D8A407D0000E0D6E000EE7
:100AD0000E6E000E0F6E120012C013F0146A156A2B
:100AE0001134133601E3148013501B6E1B50D8A42D
:100AF00007D0000E0D6E000E0E6E000E0F6E12006F
:100B0000000E176E000E186E000E196E1B50890F26
:100B10001A5E0FC01BF012501B1A800E1B160E8E91
:100B2000FF0E0D16FF0E0E16000E0F16118EFF0E85
:100B30001016FF0E1116000E1216180E166ED89013
:100B400017361836193610500D5C11500E581250C9
:100B50000F58D8A007D010500D5E11500E5A1250E9
:100B60000F5A1780D8900D360E360F36162EE7D74F
:100B700017C001F018C002F019C003F01AC004F049
:100B80001BC005F0CBEC05F001C00DF002C00EF06B
:100B900003C00FF012000450D8B405D00150021069
:100BA0000310D8A40CD0000E016E000E026E000ED1
:100BB000036E1200042AD890033202320132000E72
:100BC0000114066E000E0214076EFE0E0314086E6A
:100BD000065007100810D8B40CD0ECD7042A010E28
:100BE0000126000E0222000E0322D89003320232A8
:100BF0000132000E0114066E000E0214076EFF0E85
:100C00000314086E065007100810D8B406D0E6D7B3
:100C10000406D89001360236033602BE03D0020E17
:100C20000460F6D704A0029ED89004320450031248
:100C30000550D8A4038E01C001F002C002F003C029
:100C400003F01200949C948E28C009F029C00AF089
:100C500082EC06F009C010F00AC011F00BC012F0CF
:100C6000240E0D6EF40E0E6E470E0F6E58EC05F04E
:100C70000DC01CF00EC01DF00FC01EF0000E1F6E48
:100C8000800E206EBF0E216E08EC04F01CC02AF00E
:100C90001DC02BF01EC02CF02AC001F02BC002F0AA
:100CA0002CC003F0DEEC04F00150AF6E200EAC6EF1
:100CB000900EAB6E1200000E2E6E000E2D6E720E98
:100CC000D36E250E296E800E286E22EC06F0000EE3
:100CD000056E000E046E010E066E080E076E9EEC89
:100CE00006F00CD02DC001F02EC002F0D3EC06F0BF
:100CF0002F6E2F50DAEC06F02D4A2E2A2F28D8A47A
:100D0000F1D7FFD7000E0C6E0AAE06D0096C0A1E92
:100D1000D8B00A2A010E0C6E09C001F00AC002F018
:100D2000036A8E0E046E0CC005F0CBEC05F001C01A
:100D300009F002C00AF003C00BF0120011D004C089
:100D400001F005C002F006C0F6FF07C0F7FF08007B
:100D5000F5CF03F0BAEC06F0044A052A064A072A42
:100D600006C0F6FF07C0F7FF0800F5500009D8B429
:100D70001200E5D701C0A9FF03C0A8FFA69EA69C4C
:100D8000A684F29E550EA76EAA0EA76EA682F28EBC
:100D9000A1A8FED7A1981200000EF86E080EF76EFB
:100DA00000015BEF06F001C0A9FFA694A69EA680F5
:100DB000A8501200016E9EA8FED701C0ADFF120020
:020000040020DA
:08000000FFFFFFFFFFFFFFFF00
:020000040030CA
:0E00000000091F1EFF0381FF0FC00FE00F401D
:00000001FF
