:0400000007EF00F016
:0A00080051821BED0FF000EF11F024
:100800000001000A006400E8031027256425643A0B
:10081000256425643A25642564202020202020209A
:100820002000484F52413A20256425643A2564252A
:10083000643A256425642000444154413A202564EB
:1008400025643A256425643A2564256400256420DE
:100850002564202564202020202020202020202006
:100860000053455249414C3A20202020202020208E
:1008700020004445535045525441444F522E2020AD
:1008800000004F505010D8A42AD2000120EE04F0EE
:100890006751D9266851DA22DECF15F0DDCF16F088
:1008A000000E186E0A0E176E47EC10F015C02CF0F3
:1008B00016C02DF0000E126E0A0E116E000120EE11
:1008C00004F06751D9266851DA22DECF0FF0DDCF70
:1008D00010F0C8EC10F00FC015F010C016F0000EAC
:1008E000186E0A0E176E47EC10F0151E161E154AEC
:1008F000162A15502C240001796F16502D20000166
:100900007A6F000120EE04F06751D9266851DA228F
:10091000DECF0FF0DDCF10F0000E126E0A0E116E5A
:10092000C8EC10F00FC07BF010C07CF067C0D9FF9E
:1009300068C0DAFFDECF15F0DDCF16F0000E186EBE
:100940000A0E176E47EC10F015C02CF016C02DF0F3
:10095000000E126E0A0E116E67C0D9FF68C0DAFF72
:10096000DECF0FF0DDCF10F0C8EC10F00FC015F0A7
:1009700010C016F0000E186E0A0E176E47EC10F03D
:10098000151E161E154A162A15502C2400017D6FBF
:1009900016502D2000017E6F67C0D9FF68C0DAFFB6
:1009A000DECF0FF0DDCF10F0000E126E0A0E116ECA
:1009B000C8EC10F00FC07FF010C080F0000120EEF6
:1009C00002F06751D9266851DA22DECF15F0DDCF6B
:1009D00016F0000E186E0A0E176E47EC10F015C0D8
:1009E0002CF016C02DF0000E126E0A0E116E0001D2
:1009F00020EE02F06751D9266851DA22DECF0FF0DF
:100A0000DDCF10F0C8EC10F00FC015F010C016F0DC
:100A1000000E186E0A0E176E47EC10F0151E161E0B
:100A2000154A162A15502C240001816F16502D20CE
:100A30000001826F000120EE02F06751D926685153
:100A4000DA22DECF0FF0DDCF10F0000E126E0A0EAC
:100A5000116EC8EC10F00FC083F010C084F0930E3C
:100A60001B6E000E1C6E220E1D6E080E1E6E79C0CF
:100A70001FF07AC020F07BC021F07CC022F07DC046
:100A800023F07EC024F07FC025F080C026F081C016
:100A900027F082C028F083C029F084C02AF02EEC11
:100AA0000DF0000E86EC11F0930E116E000E126E1A
:100AB0002FEC11F06BC0D9FF6CC0DAFFDECF15F060
:100AC000DDCF16F0000E186E0A0E176E47EC10F010
:100AD00015C02CF016C02DF0000E126E0A0E116E0D
:100AE0006BC0D9FF6CC0DAFFDECF0FF0DDCF10F0A6
:100AF000C8EC10F00FC015F010C016F0000E186E04
:100B00000A0E176E47EC10F0151E161E154A162A0F
:100B100015502C2400016D6F16502D2000016E6FB2
:100B20006BC0D9FF6CC0DAFFDECF0FF0DDCF10F065
:100B3000000E126E0A0E116EC8EC10F00FC06FF0AE
:100B400010C070F0000120EE02F06B51D9266C51FC
:100B5000DA22DECF15F0DDCF16F0000E186E0A0E89
:100B6000176E47EC10F015C02CF016C02DF0000EDB
:100B7000126E0A0E116E000120EE02F06B51D926A2
:100B80006C51DA22DECF0FF0DDCF10F0C8EC10F0A0
:100B90000FC015F010C016F0000E186E0A0E176E7A
:100BA00047EC10F0151E161E154A162A15502C2457
:100BB0000001716F16502D200001726F000120EEB0
:100BC00002F06B51D9266C51DA22DECF0FF0DDCF67
:100BD00010F0000E126E0A0E116EC8EC10F00FC06D
:100BE00073F010C074F0000120EE04F06B51D926B0
:100BF0006C51DA22DECF15F0DDCF16F0000E186E44
:100C00000A0E176E47EC10F015C02CF016C02DF030
:100C1000000E126E0A0E116E000120EE04F06B51F0
:100C2000D9266C51DA22DECF0FF0DDCF10F0C8EC00
:100C300010F00FC015F010C016F0000E186E0A0E5E
:100C4000176E47EC10F0151E161E154A162A155081
:100C50002C240001756F16502D200001766F0001C5
:100C600020EE04F06B51D9266C51DA22DECF0FF062
:100C7000DDCF10F0000E126E0A0E116EC8EC10F0EF
:100C80000FC077F010C078F0930E1B6E000E1C6E34
:100C9000380E1D6E080E1E6E6DC01FF06EC020F067
:100CA0006FC021F070C022F071C023F072C024F038
:100CB00073C025F074C026F075C027F076C028F008
:100CC00077C029F078C02AF02EEC0DF0400E86ECAB
:100CD00011F0930E116E000E126E2FEC11F04F04F6
:100CE0005010D8A41ED1000120EE04F06951D9267D
:100CF0006A51DA22DECF15F0DDCF16F0000E186E45
:100D00000A0E176E47EC10F015C02CF016C02DF02F
:100D1000000E126E0A0E116E000120EE04F06951F1
:100D2000D9266A51DA22DECF0FF0DDCF10F0C8EC01
:100D300010F00FC015F010C016F0000E186E0A0E5D
:100D4000176E47EC10F0151E161E154A162A155080
:100D50002C240001796F16502D2000017A6F0001BC
:100D600020EE04F06951D9266A51DA22DECF0FF065
:100D7000DDCF10F0000E126E0A0E116EC8EC10F0EE
:100D80000FC07BF010C07CF069C0D9FF6AC0DAFFE9
:100D9000DECF15F0DDCF16F0000E186E0A0E176EBE
:100DA00047EC10F015C02CF016C02DF0000E126E9E
:100DB0000A0E116E69C0D9FF6AC0DAFFDECF0FF0EC
:100DC000DDCF10F0C8EC10F00FC015F010C016F019
:100DD000000E186E0A0E176E47EC10F0151E161E48
:100DE000154A162A15502C2400017D6F16502D200F
:100DF00000017E6F69C0D9FF6AC0DAFFDECF0FF055
:100E0000DDCF10F0000E126E0A0E116EC8EC10F05D
:100E10000FC07FF010C080F0000120EE02F0695199
:100E2000D9266A51DA22DECF15F0DDCF16F0000E9A
:100E3000186E0A0E176E47EC10F015C02CF016C095
:100E40002DF0000E126E0A0E116E000120EE02F05F
:100E50006951D9266A51DA22DECF0FF0DDCF10F0CA
:100E6000C8EC10F00FC015F010C016F0000E186E90
:100E70000A0E176E47EC10F0151E161E154A162A9C
:100E800015502C240001816F16502D200001826F17
:100E9000000120EE02F06951D9266A51DA22DECF34
:100EA0000FF0DDCF10F0000E126E0A0E116EC8ECBE
:100EB00010F00FC083F010C084F0930E1B6E000E74
:100EC0001C6E0B0E1D6E080E1E6E79C01FF07AC0D0
:100ED00020F07BC021F07CC022F07DC023F07EC0DA
:100EE00024F07FC025F080C026F081C027F082C0AA
:100EF00028F083C029F084C02AF02EEC0DF0000EFB
:100F000086EC11F0720E116E080E126E2FEC11F0BD
:100F1000400E86EC11F0930E116E000E126E2FEC47
:100F200011F0020E4F185010D8A41200E6EC12F087
:100F3000120020EE02F00F50D9261050DA22DE2ADD
:100F4000000EDD2220EE02F00F50D9261050DA22DA
:100F5000010EDBBE18D0010EDB5004E13C0EDE5C5E
:100F6000D8A011D00FC0D9FF10C0DAFFDE2A000EC2
:100F7000DD2220EE02F00F50D9261050DA22000EAA
:100F8000DE6E000EDD6E20EE02F00F50D9261050FE
:100F9000DA22010EDBAE11D020EE02F00F50D9267E
:100FA0001050DA223B0EDE6E000EDD6E0FC0D9FF50
:100FB00010C0DAFFDE06000EDD5A0FC0D9FF10C0E8
:100FC000DAFF010EDBBE18D0010EDB5004E13C0E4F
:100FD000DE5CD8A011D020EE04F00F50D9261050BE
:100FE000DA22DE2A000EDD220FC0D9FF10C0DAFFA0
:100FF000000EDE6E000EDD6E0FC0D9FF10C0DAFFEE
:10100000010EDBAE11D00FC0D9FF10C0DAFF3B0ECE
:10101000DE6E000EDD6E20EE04F00F50D92610506B
:10102000DA22DE06000EDD5A20EE04F00F50D9263B
:101030001050DA22010EDBBE18D0010EDB5004E1A5
:10104000180EDE5CD8A011D011C0D9FF12C0DAFF93
:10105000DE2A000EDD2220EE04F00F50D9261050BB
:10106000DA22000EDE6E000EDD6E20EE04F00F5070
:10107000D9261050DA22010EDBAE11D020EE04F09A
:101080000F50D9261050DA22170EDE6E000EDD6EDC
:1010900011C0D9FF12C0DAFFDE06000EDD5A11C002
:1010A000D9FF12C0DAFF10EE02F01150E126125003
:1010B000E222E6CF15F0E5CF16F0D89015361636B9
:1010C000A30E1524E16E000E1620E26EDE50E65CE3
:1010D000E650800A196EDE50800A1958D8B011D037
:1010E00020EE02F01150D9261250DA22DE2A000E2C
:1010F000DD2211C0D9FF12C0DAFF010EDE6E000E34
:10110000DD6E11C0D9FF12C0DAFF010EDBBE06D0C2
:10111000010EDB5027E1DE04D8B024D020EE02F02F
:101120001150D9261250DA22DE06000EDD5A20EECA
:1011300002F01150D9261250DA22DECF13F0DDCFA3
:1011400014F0D89013361436A30E1324D96E000E63
:101150001420DA6E11C0E1FF12C0E2FFDECFE6FF1D
:10116000DDCFE5FF20EE02F01150D9261250DA2231
:10117000010EDBBE1AD0010EDB5004E10D0EDE5C69
:10118000D8A013D020EE04F01150D9261250DA2244
:10119000DE2A000EDD2220EE02F01150D926125078
:1011A000DA22010EDE6E000EDD6E20EE02F011502E
:1011B000D9261250DA22010EDBBE06D0010EDB501A
:1011C00031E1DE04D8B02ED020EE02F01150D92645
:1011D0001250DA220C0EDE6E000EDD6E20EE02F0F2
:1011E0001150D9261250DA22DECF13F0DDCF14F0E1
:1011F000D89013361436A30E1324D96E000E142083
:10120000DA6E11C0E1FF12C0E2FFDECFE6FFDDCFF4
:10121000E5FF20EE04F01150D9261250DA22DE0646
:10122000000EDD5A20EE04F01150D9261250DA22B9
:10123000010EDBBE11D0010EDB5004E1640EDE5C5A
:10124000D8A00AD020EE04F01150D9261250DA228C
:10125000000EDE6E000EDD6E20EE04F01150D92679
:101260001250DA22010EDBAE120020EE04F0115013
:10127000D9261250DA22630EDE6E000EDD6E1200E9
:101280004F505010D8A40CD136503710D8A41CD0D1
:10129000F60E196EFF0E1A6E20EE04F01350D926CA
:1012A0001450DA22DECF1BF0DDCF1CF019501B26C4
:1012B0001A501C2220EE04F01350D9261450DA22C2
:1012C0001BC0DEFF1CC0DDFF36043710D8A409D0D8
:1012D00020EE04F01350D9261450DA22DE06000E58
:1012E000DD5A020E36183710D8A418D0F60E196E33
:1012F000FF0E1A6E13C0D9FF14C0DAFFDECF1BF049
:10130000DDCF1CF019501B261A501C2213C0D9FF28
:1013100014C0DAFF1BC0DEFF1CC0DDFF030E361851
:101320003710D8A407D013C0D9FF14C0DAFFDE06E7
:10133000000EDD5A040E36183710D8A41CD0F60E55
:10134000196EFF0E1A6E20EE02F01350D9261450BB
:10135000DA22DECF1BF0DDCF1CF019501B261A500D
:101360001C2220EE02F01350D9261450DA221BC0A2
:10137000DEFF1CC0DDFF050E36183710D8A409D0DB
:1013800020EE02F01350D9261450DA22DE06000EA9
:10139000DD5A060E36183710D8A418D0F60E196E7E
:1013A000FF0E1A6E17C0D9FF18C0DAFFDECF1BF090
:1013B000DDCF1CF019501B261A501C2217C0D9FF74
:1013C00018C0DAFF1BC0DEFF1CC0DDFF070E361899
:1013D0003710D8A407D017C0D9FF18C0DAFFDE062F
:1013E000000EDD5A080E36183710D8A41CD0F60EA1
:1013F000196EFF0E1A6E20EE02F01750D926185003
:10140000DA22DECF1BF0DDCF1CF019501B261A505C
:101410001C2220EE02F01750D9261850DA221BC0E9
:10142000DEFF1CC0DDFF090E36183710D8A409D026
:1014300020EE02F01750D9261850DA22DE06000EF0
:10144000DD5A0A0E36183710D8A41CD0F60E196EC5
:10145000FF0E1A6E20EE04F01750D9261850DA222B
:10146000DECF1BF0DDCF1CF019501B261A501C22BA
:1014700020EE04F01750D9261850DA221BC0DEFFE8
:101480001CC0DDFF0B0E36183710D8A409D020EE93
:1014900004F01750D9261850DA22DE06000EDD5A65
:1014A0004F045010D8A4120036503710D8A41CD0C6
:1014B000F60E196EFF0E1A6E20EE04F01550D926A6
:1014C0001650DA22DECF1BF0DDCF1CF019501B26A0
:1014D0001A501C2220EE04F01550D9261650DA229C
:1014E0001BC0DEFF1CC0DDFF36043710D8A409D0B6
:1014F00020EE04F01550D9261650DA22DE06000E32
:10150000DD5A020E36183710D8A418D0F60E196E10
:10151000FF0E1A6E15C0D9FF16C0DAFFDECF1BF022
:10152000DDCF1CF019501B261A501C2215C0D9FF04
:1015300016C0DAFF1BC0DEFF1CC0DDFF030E36182D
:101540003710D8A407D015C0D9FF16C0DAFFDE06C1
:10155000000EDD5A040E36183710D8A41CD0F60E33
:10156000196EFF0E1A6E20EE02F01550D926165095
:10157000DA22DECF1BF0DDCF1CF019501B261A50EB
:101580001C2220EE02F01550D9261650DA221BC07C
:10159000DEFF1CC0DDFF050E36183710D8A409D0B9
:1015A00020EE02F01550D9261650DA22DE06000E83
:1015B000DD5A15C00FF016C010F0E6EC0DF0120069
:1015C0004F505010D8A4F4D036503710D8A418D0AB
:1015D00020EE04F01350D9261450DA22DECF19F091
:1015E000DDCF1AF00A0E1926000E1A2220EE04F0A2
:1015F0001350D9261450DA2219C0DEFF1AC0DDFFBD
:1016000036043710D8A409D020EE04F01350D926A0
:101610001450DA22DE2A000EDD22020E36183710B0
:10162000D8A414D013C0D9FF14C0DAFFDECF19F04C
:10163000DDCF1AF00A0E1926000E1A2213C0D9FFA8
:1016400014C0DAFF19C0DEFF1AC0DDFF030E361822
:101650003710D8A407D013C0D9FF14C0DAFFDE2A90
:10166000000EDD22040E36183710D8A418D020EE54
:1016700002F01350D9261450DA22DECF19F0DDCF54
:101680001AF00A0E1926000E1A2220EE02F013504C
:10169000D9261450DA2219C0DEFF1AC0DDFF050E6C
:1016A00036183710D8A409D020EE02F01350D926EE
:1016B0001450DA22DE2A000EDD22060E361837100C
:1016C000D8A414D017C0D9FF18C0DAFFDECF19F0A4
:1016D000DDCF1AF00A0E1926000E1A2217C0D9FF04
:1016E00018C0DAFF19C0DEFF1AC0DDFF070E36187A
:1016F0003710D8A407D017C0D9FF18C0DAFFDE2AE8
:10170000000EDD22080E36183710D8A418D020EEAF
:1017100002F01750D9261850DA22DECF19F0DDCFAB
:101720001AF00A0E1926000E1A2220EE02F01750A7
:10173000D9261850DA2219C0DEFF1AC0DDFF090EC3
:1017400036183710D8A409D020EE02F01750D92649
:101750001850DA22DE2A000EDD220A0E3618371063
:10176000D8A418D020EE04F01750D9261850DA2249
:10177000DECF19F0DDCF1AF00A0E1926000E1A225C
:1017800020EE04F01750D9261850DA2219C0DEFFD7
:101790001AC0DDFF0B0E36183710D8A409D020EE82
:1017A00004F01750D9261850DA22DE2A000EDD2266
:1017B0004F045010D8A4120036503710D8A418D0B7
:1017C00020EE04F01550D9261650DA22DECF19F09B
:1017D000DDCF1AF00A0E1926000E1A2220EE04F0B0
:1017E0001550D9261650DA2219C0DEFF1AC0DDFFC7
:1017F00036043710D8A409D020EE04F01550D926AD
:101800001650DA22DE2A000EDD22020E36183710BC
:10181000D8A414D015C0D9FF16C0DAFFDECF19F056
:10182000DDCF1AF00A0E1926000E1A2215C0D9FFB4
:1018300016C0DAFF19C0DEFF1AC0DDFF030E36182E
:101840003710D8A407D015C0D9FF16C0DAFFDE2A9A
:10185000000EDD22040E36183710D8A418D020EE62
:1018600002F01550D9261650DA22DECF19F0DDCF5E
:101870001AF00A0E1926000E1A2220EE02F0155058
:10188000D9261650DA2219C0DEFF1AC0DDFF050E78
:1018900036183710D8A409D020EE02F01550D926FA
:1018A0001650DA22DE2A000EDD2215C00FF016C017
:1018B00010F0E6EC0DF012001F0EAF6E0F0EC16EB1
:1018C0009282010E926E8092000E4C6E000E4B6E54
:1018D000000E4A6E000E496E000E4E6E000E4D6EEA
:1018E000000E466E050E456E000E446E000E436EF1
:1018F000000E486E000E476E000E3E6E010E3D6EED
:10190000000E406E010E3F6E000E426E130E416ED1
:10191000D58EF28AF294D59CD596D580D592D58471
:10192000D59A090ED76EE70ED66ED58EF28EF28C52
:10193000A0EC12F0929092929490000E936E95808B
:10194000958295849586949C948E900EAB6E200E15
:10195000AC6E9E9A9F9A9D8AF28C000E316E300E6C
:10196000306E31EC12F0490E1D6E000E1E6E430EED
:101970001F6E000E206E3D0E216E000E226E8CEC4E
:101980000FF03C04D8A439D0490E0F6E000E106E33
:101990003D0E116E000E126E99EC07F00C0E12EC5B
:1019A00012F0490E0001676F000E0001686F430ED0
:1019B0000001696F000E00016A6F3D0E00016B6F40
:1019C000000E00016C6F41EC04F00F0E12EC12F0EF
:1019D00086EC0EF08080020E2F6EC70E2E6E880EE3
:1019E000E82EFED72E2EFCD72F2EFAD700D08090CF
:1019F0003B50D8B402D0344A352A45504B1814E134
:101A000046504C18D8A410D0435049180DE144500A
:101A10004A18D8A409D047504D1806E148504E182E
:101A2000D8A402D0010E3B6E3B04D8A40AD035BE28
:101A300006D0355006E10A0E345CD8B002D0808260
:101A400001D080920A0E34183510D8A48AD7000E1F
:101A5000356E000E346E000E3B6E83D71F0E0001F4
:101A6000606F000E0001616F9DD0250E00016619A8
:101A7000D8B409D01BC0D9FF1CC0DAFF66C0DFFF95
:101A80001B4A1C2A8FD0000E0001626F1DC0F6FF9A
:101A90001EC0F7FF1D4A1E2A0800F5CF66F00001A0
:101AA0006651000AD8B48BD0640AD8B403D00D0AAA
:101AB000D8A478D060C0D9FF61C0DAFFDECF64F06F
:101AC000DDCF65F0020E00016027000E61230001EA
:101AD00065AF08D0030E000162130001646D651F3D
:101AE000D8B0652B010E0001666F050E0001661966
:101AF000D8B416D000016651020D010EF324F66E23
:101B0000080EF420F76E0900F5500001645D09002D
:101B1000F55000016559D8A003D00001662BE5D728
:101B200062C02BF0030E2B16D8B408D01BC0D9FF0F
:101B30001CC0DAFF2D0EDF6E1B4A1C2A66C063F044
:101B40002BD000016351020D010EF324F66E080E36
:101B5000F420F76E0900F5CF11F00A00F5CF12F06E
:101B600064C00FF065C010F05DEC11F00FC016F00E
:101B700010C017F0000E196E0A0E186ED2EC11F09C
:101B80001650300F0001666F1BC0D9FF1CC0DAFF72
:101B900066C0DFFF1B4A1C2A00016307000163299E
:101BA000D8A4CFD71DC0F6FF1EC0F7FF1D4A1E2ABE
:101BB0000800F5CF66F000016651D8A456D71BC0C7
:101BC000D9FF1CC0DAFF000EDF6E120020EE02F01B
:101BD0000F50D9261050DA22010EDBBE18D0010EAC
:101BE000DB5004E13C0EDE5CD8A011D00FC0D9FF61
:101BF00010C0DAFFDE2A000EDD2220EE02F00F50C8
:101C0000D9261050DA22000EDE6E000EDD6E20EEB8
:101C100002F00F50D9261050DA22010EDBAE11D09F
:101C200020EE02F00F50D9261050DA223B0EDE6E65
:101C3000000EDD6E0FC0D9FF10C0DAFFDE06000E09
:101C4000DD5A0FC0D9FF10C0DAFF010EDBBE18D07D
:101C5000010EDB5004E13C0EDE5CD8A011D020EE7A
:101C600004F00F50D9261050DA22DE2A000EDD22B1
:101C70000FC0D9FF10C0DAFF000EDE6E000EDD6E61
:101C80000FC0D9FF10C0DAFF010EDBAE11D00FC0BC
:101C9000D9FF10C0DAFF3B0EDE6E000EDD6E20EEC7
:101CA00004F00F50D9261050DA22DE06000EDD5A5D
:101CB00020EE04F00F50D9261050DA22010EDBBEC0
:101CC00011D0010EDB5004E1180EDE5CD8A00AD062
:101CD00020EE04F00F50D9261050DA22000EDE6EEE
:101CE000000EDD6E20EE04F00F50D9261050DA22DF
:101CF000010EDBAE120020EE04F00F50D92610507A
:101D0000DA22170EDE6E000EDD6E12004F505010FC
:101D1000D8A45ED036503710D8A403D0060E86EC77
:101D200011F036043710D8A403D0070E86EC11F05A
:101D3000020E36183710D8A403D0090E86EC11F025
:101D4000030E36183710D8A403D00A0E86EC11F013
:101D5000040E36183710D8A403D00C0E86EC11F000
:101D6000050E36183710D8A403D00D0E86EC11F0EE
:101D7000060E36183710D8A403D0460E86EC11F0A4
:101D8000070E36183710D8A403D0470E86EC11F092
:101D9000080E36183710D8A403D0490E86EC11F07F
:101DA000090E36183710D8A403D04A0E86EC11F06D
:101DB0000A0E36183710D8A403D04C0E86EC11F05A
:101DC0000B0E36183710D8A403D04D0E86EC11F048
:101DD0004F045010D8A4120036503710D8A403D0A6
:101DE000400E86EC11F036043710D8A403D0410E13
:101DF00086EC11F0020E36183710D8A403D0430E2B
:101E000086EC11F0030E36183710D8A403D0440E18
:101E100086EC11F0040E36183710D8A403D0460E05
:101E200086EC11F0050E36183710D8A41200470EB4
:101E300086EC11F012000600FACF01F0FBCF02F0A1
:101E4000E9CF03F0EACF04F0E1CF05F0E2CF06F0EE
:101E5000D9CF07F0DACF08F0F3CF09F0F4CF0AF0CA
:101E6000F6CF0BF0F7CF0CF0F8CF0DF0F5CF0EF06A
:101E7000F2A409D0090ED76EE70ED66EF294384A56
:101E8000392A000E3C6E39BE0BD0395003E13804BC
:101E9000D8A006D0010E3C6E000E396E000E386ED2
:101EA0009EAA1CD0335011E1030E325CD8B00DD085
:101EB0009EAAFED78C0E3224D96E000E3320DA6E25
:101EC000AECFDFFF324A332A09D09E9A000E336E1E
:101ED000000E326E000E316E310E306E0EC0F5FF08
:101EE0000DC0F8FF0CC0F7FF0BC0F6FF0AC0F4FFEF
:101EF00009C0F3FF08C0DAFF07C0D9FF06C0E2FF40
:101F000005C0E1FF04C0EAFF03C0E9FF02C0FBFF18
:101F100001C0FAFF5192110083A00FD0050E246E6C
:101F2000910E236ED00EE82EFED7232EFCD7242E42
:101F3000FAD7D7EC12F083B0FED750BE0AD050507B
:101F400004E1030E4F5CD8A004D0000E506E000ECA
:101F50004F6E83A21BD0050E246E910E236ED00E01
:101F6000E82EFED7232EFCD7242EFAD71D0E136E93
:101F7000000E146E1F0E156E000E166E210E176EDB
:101F8000000E186EE0EC0AF083B2FED783A41BD0DB
:101F9000050E246E910E236ED00EE82EFED7232E52
:101FA000FCD7242EFAD71D0E136E000E146E1F0ED2
:101FB000156E000E166E210E176E000E186E40EC98
:101FC00009F083B4FED783A61200050E246E910E8D
:101FD000236ED00EE82EFED7232EFCD7242EFAD760
:101FE000AFEC11F083A61200FDD7146EF00E81162F
:101FF000F00E9316939C939A93988A9C8A9A8A9847
:10200000DEEC12F0300E12EC12F0050EBCEC12F009
:10201000300E12EC12F0010EBCEC12F0320E12EC8B
:1020200012F04FEC12F00009D8A4FBD74FEC12F0DD
:102030000009D8A4FBD7145012EC12F04FEC12F0A8
:102040000009D8A4FBD7080E12EC12F04FEC12F0E6
:102050000009D8A4FBD70F0E12EC12F04FEC12F0CF
:102060000009D8A4FBD7010E12EC12F04FEC12F0CD
:102070000009D8A4FBD7040E12EC12F04FEC12F0BA
:102080000009D8A4FBD7800E86EC11F01200000ED8
:102090001A6E18AE06D0176C181ED8B0182A010E8A
:1020A0001A6E16AE06D0156C161ED8B0162A010E82
:1020B0001A1A000E1C6E000E1B6E17501810D8B4A2
:1020C0001CD0010E196E04D0D89017361836192A74
:1020D00018AEFAD7D8901B361C361750155C18501E
:1020E0001658D8A005D01750155E1850165A1B80E8
:1020F000D89018321732192EEDD71A50D8B404D010
:102100001B6C1C1ED8B01C2A1BC015F01CC016F07E
:1021100012000C0E12EC12F0000E86EC11F0930E71
:102120001B6E000E1C6E610E1D6E080E1E6E2EECD8
:102130000DF0930E116E000E126E2FEC11F0400E8A
:1021400086EC11F0930E1B6E000E1C6E4D0E1D6E74
:10215000080E1E6ED00E000186251F6E206AFF0E2F
:102160002022D00E00018725216E226AFF0E222236
:10217000D00E00018525236E246AFF0E24222EEC4A
:102180000DF0930E116E000E126E2FEC11F0120076
:10219000000E146E10AE06D00F6C101ED8B0102AB0
:1021A000010E146E12AE04D0116C121ED8B0122A99
:1021B00011501210D8B418D0010E136E04D0D8905C
:1021C00011361236132A12AEFAD711500F5C125084
:1021D0001058D8A004D011500F5E1250105AD89049
:1021E00012321132132EF1D71450D8B404D00F6C20
:1021F000101ED8B0102A0FC00FF010C010F012003F
:102200005E0EF66E250EF76E000EF86E00EEA3F071
:1022100010EE1AF00900F5CFEEFFE550E150FAE1BB
:10222000D20EF66E250EF76E000EF86E0900F5CF91
:102230004FF00900F5CF50F000EE85F01E0EEE6A6B
:10224000E806FDE100EE30F01F0EEE6AE806FDE163
:1022500051905192000EF86E00015CEF0CF019D015
:102260004FEC12F00009D8A4FBD711C0F6FF12C042
:10227000F7FFF86A070EF76403D00800F55005D0A1
:10228000F6CFE1FFF7CFE2FFE750F3EC11F0114A90
:10229000122A11C0F6FF12C0F7FFF86A070EF764A2
:1022A00003D00800F55005D0F6CFE1FFF7CFE2FFED
:1022B000E7500009D8B41200D3D7000E156E000EF7
:1022C000146E11501210D8B41CD0010E136E04D02D
:1022D000D89011361236132A12AEFAD7D890143687
:1022E000153611500F5C12501058D8A005D011505F
:1022F0000F5E1250105A1480D89012321132132EE1
:10230000EDD714C00FF015C010F01200136EF00ED0
:102310009316F00E81161350106E116A108E040E73
:10232000126E113411321032122EFBD710500F0BD7
:1023300081128A9C8A9AE2EC12F08A88E2EC12F00E
:102340008A98F00E811613500F0B8112E2EC12F0F6
:102350008A88E2EC12F08A980F0E93121200364A25
:10236000372A37BE0ED0375004E10C0E365CD8A0A9
:1023700008D04F505010D8A404D0000E376E000E75
:10238000366E37BE1200375004E1060E365CD8A018
:1023900012004F045010D8A41200000E376E000E29
:1023A000366E120018501910D8B418D0010E1A6EDB
:1023B00004D0D890183619361A2A19AEFAD7185000
:1023C000165C19501758D8A004D01850165E195032
:1023D000175AD890193218321A2EF1D716C016F0A3
:1023E00017C017F01200106EF00E9316F00E811643
:1023F00010380F0B0F0B81128A8A8A9CE2EC12F0C4
:102400008A88E2EC12F08A98F00E811610500F0BB9
:102410008112E2EC12F08A88E2EC12F08A980F0E38
:1024200093121200106EF00E9316F00E81161038F3
:102430000F0B0F0B81128A9C8A9AE2EC12F08A88A9
:10244000E2EC12F08A98F00E811610500F0B8112F8
:10245000E2EC12F08A88E2EC12F08A980F0E9312E6
:1024600012000AD088EC12F012006CEC12F0000E90
:10247000316E300E306E120030C011F031C012F0EB
:102480001250000AD8A412001150300AD8B4120019
:10249000010AD8B4E7D7030AD8A41200E6D78A8C79
:1024A0008A9AE2EC12F08A88E2EC12F081A60AD055
:1024B0008A98E2EC12F08A88E2EC12F08A988A9C00
:1024C000010E12008A98E2EC12F08A88E2EC12F017
:1024D0008A988A9C000E12009EA8FED7000E106EED
:1024E000000E0F6E10BE06D0105011E1030E0F5CEF
:1024F000D8B012009EA8FED7850E0F24D96E000E0C
:102500001020DA6EDF50AD6E0F4A102AEBD71200A2
:102510008280050E106E910E0F6ED00EE82EFED743
:102520000F2EFCD7102EFAD782908CC085F08DC06C
:1025300086F08EC087F0000E316E320E306E1200C3
:10254000280EF5EC0FF04FEC12F00009D8A4FBD7E1
:10255000060E12EC12F00C0E12EC12F0120000003B
:102560001F001C001F001E001F001E001F001F0078
:102570001E001F001E001F00106E0D0E0F6EFC0EC1
:10258000E82EFED70F2EFCD7102EF7D712000F6EB5
:10259000C80E00D0E82EFDD70F2EFAD712000F6E0E
:1025A000030EE82EFED700F00F2EFAD712004F4A86
:1025B000502A000E376E000E366E1200B40EC7ECB5
:1025C00012F01200780ECFEC12F0120089EC10F02D
:0425D00012000200F3
:020000040020DA
:08000000FFFFFFFFFFFFFFFF00
:020000040030CA
:0E00000000051F1EFF8185FF0FC00FE00F409F
:00000001FF
